{
  "contractName": "Bet",
  "abi": [
    {
      "inputs": [],
      "payable": false,
      "stateMutability": "nonpayable",
      "type": "constructor"
    },
    {
      "anonymous": false,
      "inputs": [
        {
          "indexed": false,
          "internalType": "address",
          "name": "accountAddress",
          "type": "address"
        },
        {
          "indexed": false,
          "internalType": "uint256",
          "name": "amount",
          "type": "uint256"
        }
      ],
      "name": "LogQuestionMade",
      "type": "event"
    },
    {
      "constant": true,
      "inputs": [],
      "name": "owner",
      "outputs": [
        {
          "internalType": "address",
          "name": "",
          "type": "address"
        }
      ],
      "payable": false,
      "stateMutability": "view",
      "type": "function"
    },
    {
      "constant": true,
      "inputs": [
        {
          "internalType": "uint256",
          "name": "",
          "type": "uint256"
        }
      ],
      "name": "questions",
      "outputs": [
        {
          "internalType": "uint256",
          "name": "question_id",
          "type": "uint256"
        },
        {
          "internalType": "address payable",
          "name": "owner",
          "type": "address"
        },
        {
          "internalType": "string",
          "name": "description",
          "type": "string"
        },
        {
          "internalType": "uint256",
          "name": "expiryTime",
          "type": "uint256"
        },
        {
          "internalType": "bool",
          "name": "open",
          "type": "bool"
        },
        {
          "internalType": "address",
          "name": "arbitrator",
          "type": "address"
        },
        {
          "internalType": "uint256",
          "name": "question_balance",
          "type": "uint256"
        },
        {
          "internalType": "uint256",
          "name": "deposit",
          "type": "uint256"
        },
        {
          "components": [
            {
              "internalType": "uint256",
              "name": "option_id",
              "type": "uint256"
            },
            {
              "internalType": "string",
              "name": "description",
              "type": "string"
            },
            {
              "internalType": "uint256",
              "name": "option_balance",
              "type": "uint256"
            },
            {
              "internalType": "address payable[]",
              "name": "addresses",
              "type": "address[]"
            },
            {
              "internalType": "uint256[]",
              "name": "individual_bets",
              "type": "uint256[]"
            },
            {
              "internalType": "uint256",
              "name": "individualCount",
              "type": "uint256"
            }
          ],
          "internalType": "struct Bet.Option",
          "name": "option1",
          "type": "tuple"
        },
        {
          "components": [
            {
              "internalType": "uint256",
              "name": "option_id",
              "type": "uint256"
            },
            {
              "internalType": "string",
              "name": "description",
              "type": "string"
            },
            {
              "internalType": "uint256",
              "name": "option_balance",
              "type": "uint256"
            },
            {
              "internalType": "address payable[]",
              "name": "addresses",
              "type": "address[]"
            },
            {
              "internalType": "uint256[]",
              "name": "individual_bets",
              "type": "uint256[]"
            },
            {
              "internalType": "uint256",
              "name": "individualCount",
              "type": "uint256"
            }
          ],
          "internalType": "struct Bet.Option",
          "name": "option2",
          "type": "tuple"
        },
        {
          "components": [
            {
              "internalType": "uint256",
              "name": "option_id",
              "type": "uint256"
            },
            {
              "internalType": "string",
              "name": "description",
              "type": "string"
            },
            {
              "internalType": "uint256",
              "name": "option_balance",
              "type": "uint256"
            },
            {
              "internalType": "address payable[]",
              "name": "addresses",
              "type": "address[]"
            },
            {
              "internalType": "uint256[]",
              "name": "individual_bets",
              "type": "uint256[]"
            },
            {
              "internalType": "uint256",
              "name": "individualCount",
              "type": "uint256"
            }
          ],
          "internalType": "struct Bet.Option",
          "name": "option3",
          "type": "tuple"
        }
      ],
      "payable": false,
      "stateMutability": "view",
      "type": "function"
    },
    {
      "constant": true,
      "inputs": [],
      "name": "questionsCount",
      "outputs": [
        {
          "internalType": "uint256",
          "name": "",
          "type": "uint256"
        }
      ],
      "payable": false,
      "stateMutability": "view",
      "type": "function"
    },
    {
      "constant": true,
      "inputs": [
        {
          "internalType": "uint256",
          "name": "qid",
          "type": "uint256"
        }
      ],
      "name": "getDescription",
      "outputs": [
        {
          "internalType": "string",
          "name": "",
          "type": "string"
        }
      ],
      "payable": false,
      "stateMutability": "view",
      "type": "function"
    },
    {
      "constant": false,
      "inputs": [
        {
          "internalType": "string",
          "name": "_desc",
          "type": "string"
        },
        {
          "internalType": "uint256",
          "name": "_expiryTime",
          "type": "uint256"
        },
        {
          "internalType": "address",
          "name": "_arbitrator",
          "type": "address"
        },
        {
          "internalType": "string[]",
          "name": "_options",
          "type": "string[]"
        }
      ],
      "name": "addQuestion",
      "outputs": [
        {
          "internalType": "uint256",
          "name": "",
          "type": "uint256"
        }
      ],
      "payable": true,
      "stateMutability": "payable",
      "type": "function"
    },
    {
      "constant": false,
      "inputs": [],
      "name": "getAllQuestions",
      "outputs": [
        {
          "internalType": "uint256[]",
          "name": "",
          "type": "uint256[]"
        },
        {
          "internalType": "string[]",
          "name": "",
          "type": "string[]"
        },
        {
          "internalType": "uint256[]",
          "name": "",
          "type": "uint256[]"
        }
      ],
      "payable": false,
      "stateMutability": "nonpayable",
      "type": "function"
    },
    {
      "constant": false,
      "inputs": [
        {
          "internalType": "bool",
          "name": "isOpen",
          "type": "bool"
        }
      ],
      "name": "getFilteredQuestions",
      "outputs": [
        {
          "internalType": "uint256[]",
          "name": "",
          "type": "uint256[]"
        },
        {
          "internalType": "string[]",
          "name": "",
          "type": "string[]"
        },
        {
          "internalType": "uint256[]",
          "name": "",
          "type": "uint256[]"
        }
      ],
      "payable": false,
      "stateMutability": "nonpayable",
      "type": "function"
    },
    {
      "constant": false,
      "inputs": [
        {
          "internalType": "uint256",
          "name": "qid",
          "type": "uint256"
        }
      ],
      "name": "getQuestionById",
      "outputs": [
        {
          "internalType": "uint256",
          "name": "",
          "type": "uint256"
        },
        {
          "internalType": "string",
          "name": "",
          "type": "string"
        },
        {
          "internalType": "uint256",
          "name": "",
          "type": "uint256"
        },
        {
          "internalType": "string[]",
          "name": "",
          "type": "string[]"
        },
        {
          "internalType": "uint256[]",
          "name": "",
          "type": "uint256[]"
        }
      ],
      "payable": false,
      "stateMutability": "nonpayable",
      "type": "function"
    },
    {
      "constant": false,
      "inputs": [
        {
          "internalType": "uint256",
          "name": "question_id",
          "type": "uint256"
        }
      ],
      "name": "closeQuestion",
      "outputs": [
        {
          "internalType": "uint256",
          "name": "",
          "type": "uint256"
        }
      ],
      "payable": false,
      "stateMutability": "nonpayable",
      "type": "function"
    },
    {
      "constant": false,
      "inputs": [
        {
          "internalType": "uint256",
          "name": "question_id",
          "type": "uint256"
        },
        {
          "internalType": "uint256",
          "name": "option_id",
          "type": "uint256"
        }
      ],
      "name": "makeBet",
      "outputs": [
        {
          "internalType": "uint256",
          "name": "",
          "type": "uint256"
        }
      ],
      "payable": true,
      "stateMutability": "payable",
      "type": "function"
    }
  ],
  "bytecode": "0x608060405234801561001057600080fd5b5033600260006101000a81548173ffffffffffffffffffffffffffffffffffffffff021916908373ffffffffffffffffffffffffffffffffffffffff16021790555061390c806100616000396000f3fe6080604052600436106100915760003560e01c8063be57d0bc11610059578063be57d0bc1461019d578063c09f32e8146101cd578063df898e321461020a578063e25f3e021461023a578063f0534de91461027b57610091565b80632af9338e1461009657806331b1b978146100c35780634925ec551461010a5780637c1fb3c3146101475780638da5cb5b14610172575b600080fd5b3480156100a257600080fd5b506100ab6102ba565b6040516100ba93929190613420565b60405180910390f35b3480156100cf57600080fd5b506100ea60048036036100e59190810190612ff9565b61041c565b6040516101019b9a999897969594939291906134a9565b60405180910390f35b34801561011657600080fd5b50610131600480360361012c9190810190612ff9565b610a6b565b60405161013e919061346c565b60405180910390f35b34801561015357600080fd5b5061015c610b27565b604051610169919061348e565b60405180910390f35b34801561017e57600080fd5b50610187610b2d565b60405161019491906133dc565b60405180910390f35b6101b760048036036101b29190810190612f66565b610b53565b6040516101c4919061348e565b60405180910390f35b3480156101d957600080fd5b506101f460048036036101ef9190810190612ff9565b610fb6565b604051610201919061348e565b60405180910390f35b610224600480360361021f9190810190613022565b611836565b604051610231919061348e565b60405180910390f35b34801561024657600080fd5b50610261600480360361025c9190810190612ff9565b6120c8565b604051610272959493929190613570565b60405180910390f35b34801561028757600080fd5b506102a2600480360361029d9190810190612f3d565b61290b565b6040516102b193929190613420565b60405180910390f35b60608060606102c7612a9e565b60608060606000600190505b600154811161040a57600080828152602001908152602001600020600001548482815181106102fe57fe5b6020026020010181815250506000808281526020019081526020016000206002018054600181600116156101000203166002900480601f0160208091040260200160405190810160405280929190818152602001828054600181600116156101000203166002900480156103b35780601f10610388576101008083540402835291602001916103b3565b820191906000526020600020905b81548152906001019060200180831161039657829003601f168201915b50505050508382815181106103c457fe5b6020026020010181905250600080828152602001908152602001600020600301548282815181106103f157fe5b60200260200101818152505080806001019150506102d3565b50828282955095509550505050909192565b60006020528060005260406000206000915090508060000154908060010160009054906101000a900473ffffffffffffffffffffffffffffffffffffffff1690806002018054600181600116156101000203166002900480601f0160208091040260200160405190810160405280929190818152602001828054600181600116156101000203166002900480156104f45780601f106104c9576101008083540402835291602001916104f4565b820191906000526020600020905b8154815290600101906020018083116104d757829003601f168201915b5050505050908060030154908060040160009054906101000a900460ff16908060040160019054906101000a900473ffffffffffffffffffffffffffffffffffffffff1690806005015490806006015490806007016040518060c001604052908160008201548152602001600182018054600181600116156101000203166002900480601f0160208091040260200160405190810160405280929190818152602001828054600181600116156101000203166002900480156105f75780601f106105cc576101008083540402835291602001916105f7565b820191906000526020600020905b8154815290600101906020018083116105da57829003601f168201915b50505050508152602001600282015481526020016003820180548060200260200160405190810160405280929190818152602001828054801561068f57602002820191906000526020600020905b8160009054906101000a900473ffffffffffffffffffffffffffffffffffffffff1673ffffffffffffffffffffffffffffffffffffffff1681526020019060010190808311610645575b50505050508152602001600482018054806020026020016040519081016040528092919081815260200182805480156106e757602002820191906000526020600020905b8154815260200190600101908083116106d3575b505050505081526020016005820154815250509080600d016040518060c001604052908160008201548152602001600182018054600181600116156101000203166002900480601f0160208091040260200160405190810160405280929190818152602001828054600181600116156101000203166002900480156107ad5780601f10610782576101008083540402835291602001916107ad565b820191906000526020600020905b81548152906001019060200180831161079057829003601f168201915b50505050508152602001600282015481526020016003820180548060200260200160405190810160405280929190818152602001828054801561084557602002820191906000526020600020905b8160009054906101000a900473ffffffffffffffffffffffffffffffffffffffff1673ffffffffffffffffffffffffffffffffffffffff16815260200190600101908083116107fb575b505050505081526020016004820180548060200260200160405190810160405280929190818152602001828054801561089d57602002820191906000526020600020905b815481526020019060010190808311610889575b5050505050815260200160058201548152505090806013016040518060c001604052908160008201548152602001600182018054600181600116156101000203166002900480601f0160208091040260200160405190810160405280929190818152602001828054600181600116156101000203166002900480156109635780601f1061093857610100808354040283529160200191610963565b820191906000526020600020905b81548152906001019060200180831161094657829003601f168201915b5050505050815260200160028201548152602001600382018054806020026020016040519081016040528092919081815260200182805480156109fb57602002820191906000526020600020905b8160009054906101000a900473ffffffffffffffffffffffffffffffffffffffff1673ffffffffffffffffffffffffffffffffffffffff16815260200190600101908083116109b1575b5050505050815260200160048201805480602002602001604051908101604052809291908181526020018280548015610a5357602002820191906000526020600020905b815481526020019060010190808311610a3f575b5050505050815260200160058201548152505090508b565b6060806000808481526020019081526020016000206002018054600181600116156101000203166002900480601f016020809104026020016040519081016040528092919081815260200182805460018160011615610100020316600290048015610b175780601f10610aec57610100808354040283529160200191610b17565b820191906000526020600020905b815481529060010190602001808311610afa57829003601f168201915b5050505050905080915050919050565b60015481565b600260009054906101000a900473ffffffffffffffffffffffffffffffffffffffff1681565b60006001341015610b6357600080fd5b60018060008282540192505081905550606080610b7e612b1d565b6040518060c001604052806000815260200186600081518110610b9d57fe5b602002602001015181526020016000815260200184815260200183815260200160008152509050610bcc612b1d565b6040518060c001604052806001815260200187600181518110610beb57fe5b602002602001015181526020016000815260200185815260200184815260200160008152509050610c1a612b1d565b6040518060c001604052806002815260200188600281518110610c3957fe5b60200260200101518152602001600081526020018681526020018581526020016000815250905060405180610160016040528060015481526020013373ffffffffffffffffffffffffffffffffffffffff1681526020018b81526020018a81526020016001151581526020018973ffffffffffffffffffffffffffffffffffffffff168152602001600081526020013481526020018481526020018381526020018281525060008060015481526020019081526020016000206000820151816000015560208201518160010160006101000a81548173ffffffffffffffffffffffffffffffffffffffff021916908373ffffffffffffffffffffffffffffffffffffffff1602179055506040820151816002019080519060200190610d5f929190612b53565b506060820151816003015560808201518160040160006101000a81548160ff02191690831515021790555060a08201518160040160016101000a81548173ffffffffffffffffffffffffffffffffffffffff021916908373ffffffffffffffffffffffffffffffffffffffff16021790555060c0820151816005015560e0820151816006015561010082015181600701600082015181600001556020820151816001019080519060200190610e15929190612b53565b50604082015181600201556060820151816003019080519060200190610e3c929190612bd3565b506080820151816004019080519060200190610e59929190612c5d565b5060a08201518160050155505061012082015181600d01600082015181600001556020820151816001019080519060200190610e96929190612b53565b50604082015181600201556060820151816003019080519060200190610ebd929190612bd3565b506080820151816004019080519060200190610eda929190612c5d565b5060a08201518160050155505061014082015181601301600082015181600001556020820151816001019080519060200190610f17929190612b53565b50604082015181600201556060820151816003019080519060200190610f3e929190612bd3565b506080820151816004019080519060200190610f5b929190612c5d565b5060a0820151816005015550509050507f61027becd95819dfaea4b3c7c774b9c0ae2cb9cf291ebbd5b51ea07edfd869ed3334604051610f9c9291906133f7565b60405180910390a160015495505050505050949350505050565b6000600154821115610fc757600080fd5b6001151560008084815260200190815260200160002060040160009054906101000a900460ff16151514610ffa57600080fd5b611002612caa565b60008084815260200190815260200160002060405180610160016040529081600082015481526020016001820160009054906101000a900473ffffffffffffffffffffffffffffffffffffffff1673ffffffffffffffffffffffffffffffffffffffff1673ffffffffffffffffffffffffffffffffffffffff168152602001600282018054600181600116156101000203166002900480601f0160208091040260200160405190810160405280929190818152602001828054600181600116156101000203166002900480156111195780601f106110ee57610100808354040283529160200191611119565b820191906000526020600020905b8154815290600101906020018083116110fc57829003601f168201915b50505050508152602001600382015481526020016004820160009054906101000a900460ff161515151581526020016004820160019054906101000a900473ffffffffffffffffffffffffffffffffffffffff1673ffffffffffffffffffffffffffffffffffffffff1673ffffffffffffffffffffffffffffffffffffffff1681526020016005820154815260200160068201548152602001600782016040518060c001604052908160008201548152602001600182018054600181600116156101000203166002900480601f0160208091040260200160405190810160405280929190818152602001828054600181600116156101000203166002900480156112645780601f1061123957610100808354040283529160200191611264565b820191906000526020600020905b81548152906001019060200180831161124757829003601f168201915b5050505050815260200160028201548152602001600382018054806020026020016040519081016040528092919081815260200182805480156112fc57602002820191906000526020600020905b8160009054906101000a900473ffffffffffffffffffffffffffffffffffffffff1673ffffffffffffffffffffffffffffffffffffffff16815260200190600101908083116112b2575b505050505081526020016004820180548060200260200160405190810160405280929190818152602001828054801561135457602002820191906000526020600020905b815481526020019060010190808311611340575b505050505081526020016005820154815250508152602001600d82016040518060c001604052908160008201548152602001600182018054600181600116156101000203166002900480601f01602080910402602001604051908101604052809291908181526020018280546001816001161561010002031660029004801561141e5780601f106113f35761010080835404028352916020019161141e565b820191906000526020600020905b81548152906001019060200180831161140157829003601f168201915b5050505050815260200160028201548152602001600382018054806020026020016040519081016040528092919081815260200182805480156114b657602002820191906000526020600020905b8160009054906101000a900473ffffffffffffffffffffffffffffffffffffffff1673ffffffffffffffffffffffffffffffffffffffff168152602001906001019080831161146c575b505050505081526020016004820180548060200260200160405190810160405280929190818152602001828054801561150e57602002820191906000526020600020905b8154815260200190600101908083116114fa575b505050505081526020016005820154815250508152602001601382016040518060c001604052908160008201548152602001600182018054600181600116156101000203166002900480601f0160208091040260200160405190810160405280929190818152602001828054600181600116156101000203166002900480156115d85780601f106115ad576101008083540402835291602001916115d8565b820191906000526020600020905b8154815290600101906020018083116115bb57829003601f168201915b50505050508152602001600282015481526020016003820180548060200260200160405190810160405280929190818152602001828054801561167057602002820191906000526020600020905b8160009054906101000a900473ffffffffffffffffffffffffffffffffffffffff1673ffffffffffffffffffffffffffffffffffffffff1681526020019060010190808311611626575b50505050508152602001600482018054806020026020016040519081016040528092919081815260200182805480156116c857602002820191906000526020600020905b8154815260200190600101908083116116b4575b505050505081526020016005820154815250508152505090506116e9612b1d565b8161010001519050816020015173ffffffffffffffffffffffffffffffffffffffff166108fc8360e001519081150290604051600060405180830381858888f1935050505015801561173f573d6000803e3d6000fd5b5060008260c0015190506000600190505b8260a0015181116118195760008360600151828151811061176d57fe5b6020026020010151905060008385604001518660800151858151811061178f57fe5b60200260200101518161179e57fe5b040290508560c001518111156117b357600080fd5b808660c00181815103915081815250508173ffffffffffffffffffffffffffffffffffffffff166108fc829081150290604051600060405180830381858888f19350505050158015611809573d6000803e3d6000fd5b5050508080600101915050611750565b506000836080019015159081151581525050849350505050919050565b60006001151560008085815260200190815260200160002060040160009054906101000a900460ff1615151461186b57600080fd5b611873612caa565b60008085815260200190815260200160002060405180610160016040529081600082015481526020016001820160009054906101000a900473ffffffffffffffffffffffffffffffffffffffff1673ffffffffffffffffffffffffffffffffffffffff1673ffffffffffffffffffffffffffffffffffffffff168152602001600282018054600181600116156101000203166002900480601f01602080910402602001604051908101604052809291908181526020018280546001816001161561010002031660029004801561198a5780601f1061195f5761010080835404028352916020019161198a565b820191906000526020600020905b81548152906001019060200180831161196d57829003601f168201915b50505050508152602001600382015481526020016004820160009054906101000a900460ff161515151581526020016004820160019054906101000a900473ffffffffffffffffffffffffffffffffffffffff1673ffffffffffffffffffffffffffffffffffffffff1673ffffffffffffffffffffffffffffffffffffffff1681526020016005820154815260200160068201548152602001600782016040518060c001604052908160008201548152602001600182018054600181600116156101000203166002900480601f016020809104026020016040519081016040528092919081815260200182805460018160011615610100020316600290048015611ad55780601f10611aaa57610100808354040283529160200191611ad5565b820191906000526020600020905b815481529060010190602001808311611ab857829003601f168201915b505050505081526020016002820154815260200160038201805480602002602001604051908101604052809291908181526020018280548015611b6d57602002820191906000526020600020905b8160009054906101000a900473ffffffffffffffffffffffffffffffffffffffff1673ffffffffffffffffffffffffffffffffffffffff1681526020019060010190808311611b23575b5050505050815260200160048201805480602002602001604051908101604052809291908181526020018280548015611bc557602002820191906000526020600020905b815481526020019060010190808311611bb1575b505050505081526020016005820154815250508152602001600d82016040518060c001604052908160008201548152602001600182018054600181600116156101000203166002900480601f016020809104026020016040519081016040528092919081815260200182805460018160011615610100020316600290048015611c8f5780601f10611c6457610100808354040283529160200191611c8f565b820191906000526020600020905b815481529060010190602001808311611c7257829003601f168201915b505050505081526020016002820154815260200160038201805480602002602001604051908101604052809291908181526020018280548015611d2757602002820191906000526020600020905b8160009054906101000a900473ffffffffffffffffffffffffffffffffffffffff1673ffffffffffffffffffffffffffffffffffffffff1681526020019060010190808311611cdd575b5050505050815260200160048201805480602002602001604051908101604052809291908181526020018280548015611d7f57602002820191906000526020600020905b815481526020019060010190808311611d6b575b505050505081526020016005820154815250508152602001601382016040518060c001604052908160008201548152602001600182018054600181600116156101000203166002900480601f016020809104026020016040519081016040528092919081815260200182805460018160011615610100020316600290048015611e495780601f10611e1e57610100808354040283529160200191611e49565b820191906000526020600020905b815481529060010190602001808311611e2c57829003601f168201915b505050505081526020016002820154815260200160038201805480602002602001604051908101604052809291908181526020018280548015611ee157602002820191906000526020600020905b8160009054906101000a900473ffffffffffffffffffffffffffffffffffffffff1673ffffffffffffffffffffffffffffffffffffffff1681526020019060010190808311611e97575b5050505050815260200160048201805480602002602001604051908101604052809291908181526020018280548015611f3957602002820191906000526020600020905b815481526020019060010190808311611f25575b50505050508152602001600582015481525050815250509050611f5a612b1d565b6000841415611f70578161010001519050611f90565b6001841415611f86578161012001519050611f8f565b81610140015190505b5b600080600090505b826060015151811015612078573373ffffffffffffffffffffffffffffffffffffffff1683606001518281518110611fcc57fe5b602002602001015173ffffffffffffffffffffffffffffffffffffffff161415611ff857809150612078565b60018360600151510381141561206b57600181019150338360600151838151811061201f57fe5b602002602001019073ffffffffffffffffffffffffffffffffffffffff16908173ffffffffffffffffffffffffffffffffffffffff168152505060018360a00181815101915081815250505b8080600101915050611f98565b50348260800151828151811061208a57fe5b60200260200101818151019150818152505034826040018181510191508181525050348360c001818151019150818152505085935050505092915050565b6000606060006060806120d9612a9e565b6001548611156120e857600080fd5b6120f0612caa565b6000600190505b600154811161280e57876000808381526020019081526020016000206000015414156128015760008082815260200190815260200160002060405180610160016040529081600082015481526020016001820160009054906101000a900473ffffffffffffffffffffffffffffffffffffffff1673ffffffffffffffffffffffffffffffffffffffff1673ffffffffffffffffffffffffffffffffffffffff168152602001600282018054600181600116156101000203166002900480601f0160208091040260200160405190810160405280929190818152602001828054600181600116156101000203166002900480156122345780601f1061220957610100808354040283529160200191612234565b820191906000526020600020905b81548152906001019060200180831161221757829003601f168201915b50505050508152602001600382015481526020016004820160009054906101000a900460ff161515151581526020016004820160019054906101000a900473ffffffffffffffffffffffffffffffffffffffff1673ffffffffffffffffffffffffffffffffffffffff1673ffffffffffffffffffffffffffffffffffffffff1681526020016005820154815260200160068201548152602001600782016040518060c001604052908160008201548152602001600182018054600181600116156101000203166002900480601f01602080910402602001604051908101604052809291908181526020018280546001816001161561010002031660029004801561237f5780601f106123545761010080835404028352916020019161237f565b820191906000526020600020905b81548152906001019060200180831161236257829003601f168201915b50505050508152602001600282015481526020016003820180548060200260200160405190810160405280929190818152602001828054801561241757602002820191906000526020600020905b8160009054906101000a900473ffffffffffffffffffffffffffffffffffffffff1673ffffffffffffffffffffffffffffffffffffffff16815260200190600101908083116123cd575b505050505081526020016004820180548060200260200160405190810160405280929190818152602001828054801561246f57602002820191906000526020600020905b81548152602001906001019080831161245b575b505050505081526020016005820154815250508152602001600d82016040518060c001604052908160008201548152602001600182018054600181600116156101000203166002900480601f0160208091040260200160405190810160405280929190818152602001828054600181600116156101000203166002900480156125395780601f1061250e57610100808354040283529160200191612539565b820191906000526020600020905b81548152906001019060200180831161251c57829003601f168201915b5050505050815260200160028201548152602001600382018054806020026020016040519081016040528092919081815260200182805480156125d157602002820191906000526020600020905b8160009054906101000a900473ffffffffffffffffffffffffffffffffffffffff1673ffffffffffffffffffffffffffffffffffffffff1681526020019060010190808311612587575b505050505081526020016004820180548060200260200160405190810160405280929190818152602001828054801561262957602002820191906000526020600020905b815481526020019060010190808311612615575b505050505081526020016005820154815250508152602001601382016040518060c001604052908160008201548152602001600182018054600181600116156101000203166002900480601f0160208091040260200160405190810160405280929190818152602001828054600181600116156101000203166002900480156126f35780601f106126c8576101008083540402835291602001916126f3565b820191906000526020600020905b8154815290600101906020018083116126d657829003601f168201915b50505050508152602001600282015481526020016003820180548060200260200160405190810160405280929190818152602001828054801561278b57602002820191906000526020600020905b8160009054906101000a900473ffffffffffffffffffffffffffffffffffffffff1673ffffffffffffffffffffffffffffffffffffffff1681526020019060010190808311612741575b50505050508152602001600482018054806020026020016040519081016040528092919081815260200182805480156127e357602002820191906000526020600020905b8154815260200190600101908083116127cf575b5050505050815260200160058201548152505081525050915061280e565b80806001019150506120f7565b50606080826101000151602001518260008151811061282957fe5b6020026020010181905250826101200151602001518260018151811061284b57fe5b6020026020010181905250826101400151602001518260028151811061286d57fe5b602002602001018190525082610100015160a001518160008151811061288f57fe5b60200260200101818152505082610120015160a00151816001815181106128b257fe5b60200260200101818152505082610140015160a00151816002815181106128d557fe5b60200260200101818152505082600001518360400151846060015184848393509750975097509750975050505091939590929450565b6060806060612918612a9e565b60608060606000600190505b6001548111612a8a5787151560008083815260200190815260200160002060040160009054906101000a900460ff1615151415612a7d576000808281526020019081526020016000206000015484828151811061297d57fe5b6020026020010181815250506000808281526020019081526020016000206002018054600181600116156101000203166002900480601f016020809104026020016040519081016040528092919081815260200182805460018160011615610100020316600290048015612a325780601f10612a0757610100808354040283529160200191612a32565b820191906000526020600020905b815481529060010190602001808311612a1557829003601f168201915b5050505050838281518110612a4357fe5b602002602001018190525060008082815260200190815260200160002060030154828281518110612a7057fe5b6020026020010181815250505b8080600101915050612924565b508282829550955095505050509193909250565b6000600190505b6001548111612b1a576001151560008083815260200190815260200160002060040160009054906101000a900460ff161515148015612afd57506103e842026000808381526020019081526020016000206003015411155b15612b0d57612b0b81610fb6565b505b8080600101915050612aa5565b50565b6040518060c001604052806000815260200160608152602001600081526020016060815260200160608152602001600081525090565b828054600181600116156101000203166002900490600052602060002090601f016020900481019282601f10612b9457805160ff1916838001178555612bc2565b82800160010185558215612bc2579182015b82811115612bc1578251825591602001919060010190612ba6565b5b509050612bcf9190612d44565b5090565b828054828255906000526020600020908101928215612c4c579160200282015b82811115612c4b5782518260006101000a81548173ffffffffffffffffffffffffffffffffffffffff021916908373ffffffffffffffffffffffffffffffffffffffff16021790555091602001919060010190612bf3565b5b509050612c599190612d69565b5090565b828054828255906000526020600020908101928215612c99579160200282015b82811115612c98578251825591602001919060010190612c7d565b5b509050612ca69190612d44565b5090565b60405180610160016040528060008152602001600073ffffffffffffffffffffffffffffffffffffffff1681526020016060815260200160008152602001600015158152602001600073ffffffffffffffffffffffffffffffffffffffff1681526020016000815260200160008152602001612d24612dac565b8152602001612d31612dac565b8152602001612d3e612dac565b81525090565b612d6691905b80821115612d62576000816000905550600101612d4a565b5090565b90565b612da991905b80821115612da557600081816101000a81549073ffffffffffffffffffffffffffffffffffffffff021916905550600101612d6f565b5090565b90565b6040518060c001604052806000815260200160608152602001600081526020016060815260200160608152602001600081525090565b600081359050612df181613884565b92915050565b600082601f830112612e0857600080fd5b8135612e1b612e1682613605565b6135d8565b9150818183526020840193506020810190508360005b83811015612e615781358601612e478882612e80565b845260208401935060208301925050600181019050612e31565b5050505092915050565b600081359050612e7a8161389b565b92915050565b600082601f830112612e9157600080fd5b8135612ea4612e9f8261362d565b6135d8565b91508082526020830160208301858383011115612ec057600080fd5b612ecb838284613831565b50505092915050565b600082601f830112612ee557600080fd5b8135612ef8612ef382613659565b6135d8565b91508082526020830160208301858383011115612f1457600080fd5b612f1f838284613831565b50505092915050565b600081359050612f37816138b2565b92915050565b600060208284031215612f4f57600080fd5b6000612f5d84828501612e6b565b91505092915050565b60008060008060808587031215612f7c57600080fd5b600085013567ffffffffffffffff811115612f9657600080fd5b612fa287828801612ed4565b9450506020612fb387828801612f28565b9350506040612fc487828801612de2565b925050606085013567ffffffffffffffff811115612fe157600080fd5b612fed87828801612df7565b91505092959194509250565b60006020828403121561300b57600080fd5b600061301984828501612f28565b91505092915050565b6000806040838503121561303557600080fd5b600061304385828601612f28565b925050602061305485828601612f28565b9150509250929050565b600061306a83836130b1565b60208301905092915050565b600061308283836132b5565b905092915050565b600061309683836133be565b60208301905092915050565b6130ab816137fb565b82525050565b6130ba816137b3565b82525050565b6130c9816137b3565b82525050565b6130d8816137a1565b82525050565b60006130e9826136c5565b6130f3818561373b565b93506130fe83613685565b8060005b8381101561312f578151613116888261305e565b975061312183613707565b925050600181019050613102565b5085935050505092915050565b6000613147826136d0565b613151818561374c565b93508360208202850161316385613695565b8060005b8581101561319f57848403895281516131808582613076565b945061318b83613714565b925060208a01995050600181019050613167565b50829750879550505050505092915050565b60006131bc826136e6565b6131c6818561376e565b93506131d1836136b5565b8060005b838110156132025781516131e9888261308a565b97506131f48361372e565b9250506001810190506131d5565b5085935050505092915050565b600061321a826136db565b613224818561375d565b935061322f836136a5565b8060005b83811015613260578151613247888261308a565b975061325283613721565b925050600181019050613233565b5085935050505092915050565b613276816137c5565b82525050565b6000613287826136fc565b6132918185613790565b93506132a1818560208601613840565b6132aa81613873565b840191505092915050565b60006132c0826136f1565b6132ca818561377f565b93506132da818560208601613840565b6132e381613873565b840191505092915050565b60006132f9826136f1565b6133038185613790565b9350613313818560208601613840565b61331c81613873565b840191505092915050565b600060c08301600083015161333f60008601826133be565b506020830151848203602086015261335782826132b5565b915050604083015161336c60408601826133be565b506060830151848203606086015261338482826130de565b9150506080830151848203608086015261339e828261320f565b91505060a08301516133b360a08601826133be565b508091505092915050565b6133c7816137f1565b82525050565b6133d6816137f1565b82525050565b60006020820190506133f160008301846130cf565b92915050565b600060408201905061340c60008301856130a2565b61341960208301846133cd565b9392505050565b6000606082019050818103600083015261343a81866131b1565b9050818103602083015261344e818561313c565b9050818103604083015261346281846131b1565b9050949350505050565b60006020820190508181036000830152613486818461327c565b905092915050565b60006020820190506134a360008301846133cd565b92915050565b6000610160820190506134bf600083018e6133cd565b6134cc602083018d6130c0565b81810360408301526134de818c6132ee565b90506134ed606083018b6133cd565b6134fa608083018a61326d565b61350760a08301896130cf565b61351460c08301886133cd565b61352160e08301876133cd565b8181036101008301526135348186613327565b90508181036101208301526135498185613327565b905081810361014083015261355e8184613327565b90509c9b505050505050505050505050565b600060a08201905061358560008301886133cd565b8181036020830152613597818761327c565b90506135a660408301866133cd565b81810360608301526135b8818561313c565b905081810360808301526135cc81846131b1565b90509695505050505050565b6000604051905081810181811067ffffffffffffffff821117156135fb57600080fd5b8060405250919050565b600067ffffffffffffffff82111561361c57600080fd5b602082029050602081019050919050565b600067ffffffffffffffff82111561364457600080fd5b601f19601f8301169050602081019050919050565b600067ffffffffffffffff82111561367057600080fd5b601f19601f8301169050602081019050919050565b6000819050602082019050919050565b6000819050602082019050919050565b6000819050602082019050919050565b6000819050602082019050919050565b600081519050919050565b600081519050919050565b600081519050919050565b600081519050919050565b600081519050919050565b600081519050919050565b6000602082019050919050565b6000602082019050919050565b6000602082019050919050565b6000602082019050919050565b600082825260208201905092915050565b600082825260208201905092915050565b600082825260208201905092915050565b600082825260208201905092915050565b600082825260208201905092915050565b600082825260208201905092915050565b60006137ac826137d1565b9050919050565b60006137be826137d1565b9050919050565b60008115159050919050565b600073ffffffffffffffffffffffffffffffffffffffff82169050919050565b6000819050919050565b60006138068261380d565b9050919050565b60006138188261381f565b9050919050565b600061382a826137d1565b9050919050565b82818337600083830152505050565b60005b8381101561385e578082015181840152602081019050613843565b8381111561386d576000848401525b50505050565b6000601f19601f8301169050919050565b61388d816137a1565b811461389857600080fd5b50565b6138a4816137c5565b81146138af57600080fd5b50565b6138bb816137f1565b81146138c657600080fd5b5056fea365627a7a72315820e0774e4545b0cc6d054b3ef2894a63c43db918c13a2b25a4cfc2cdd01ade15636c6578706572696d656e74616cf564736f6c63430005100040",
  "source": "// SPDX-License-Identifier: MIT\r\npragma solidity >=0.5.16;\r\npragma experimental ABIEncoderV2;\r\n\r\nimport \"./Arbitration.sol\";\r\n\r\ncontract Bet {\r\n\r\n    struct Option {\r\n        uint option_id;\r\n        string description;\r\n        uint option_balance;\r\n        address payable[] addresses;\r\n        uint[] individual_bets;\r\n        uint individualCount;\r\n\r\n    }\r\n\r\n    struct Question{\r\n        uint question_id;\r\n        address payable owner;\r\n        string description;\r\n        uint expiryTime;\r\n        bool open;\r\n        address arbitrator;\r\n        uint question_balance;\r\n        uint deposit;\r\n\r\n        Option option1;\r\n        Option option2;\r\n        Option option3;\r\n        \r\n    }\r\n\r\n    mapping(uint => Question) public questions;\r\n    uint public questionsCount;\r\n    address public owner;\r\n    event LogQuestionMade(address accountAddress, uint amount);\r\n\r\n    constructor () public {\r\n        owner = msg.sender;\r\n    }\r\n\r\n    function getDescription(uint qid) view public returns (string memory){\r\n        string memory desc = questions[qid].description;\r\n        return desc;\r\n    }\r\n\r\n    function addQuestion(string memory _desc, uint _expiryTime, address _arbitrator, string[] memory _options) public payable returns (uint) {\r\n        require(msg.value >= 1);\r\n\r\n        questionsCount += 1;\r\n\r\n        address payable[] memory empty_address;\r\n        uint[] memory empty_bets;\r\n\r\n        Option memory dummyOption1 = Option({\r\n            option_id: 0,\r\n            description: _options[0],\r\n            option_balance: 0,\r\n            addresses: empty_address,\r\n            individual_bets: empty_bets,\r\n            individualCount: 0\r\n        });\r\n\r\n        Option memory dummyOption2 = Option({\r\n            option_id: 1,\r\n            description: _options[1],\r\n            option_balance: 0,\r\n            addresses: empty_address,\r\n            individual_bets: empty_bets,\r\n            individualCount: 0\r\n        });\r\n\r\n        Option memory dummyOption3 = Option({\r\n            option_id: 2,\r\n            description: _options[2],\r\n            option_balance: 0,\r\n            addresses: empty_address,\r\n            individual_bets: empty_bets,\r\n            individualCount: 0\r\n        });\r\n\r\n        questions[questionsCount] = Question({\r\n            question_id: questionsCount, \r\n            owner: msg.sender, \r\n            description: _desc, \r\n            expiryTime: _expiryTime,\r\n            open: true,\r\n            arbitrator: _arbitrator,\r\n            option1: dummyOption1,\r\n            option2: dummyOption2,\r\n            option3: dummyOption3,\r\n            question_balance: 0,\r\n            deposit: msg.value}\r\n        );\r\n\r\n        emit LogQuestionMade(msg.sender, msg.value); // emit an event\r\n\r\n        return questionsCount;\r\n    }\r\n\r\n    function updateQuestionStatus() private {\r\n        for(uint i=1; i<=questionsCount; i++){\r\n            if((questions[i].open == true) && (questions[i].expiryTime <= block.timestamp*1000)){\r\n                closeQuestion(i);\r\n            }\r\n        }\r\n    }\r\n\r\n    function getAllQuestions() public returns (uint[] memory , string[] memory , uint[] memory){\r\n        updateQuestionStatus();\r\n\r\n        uint[] memory question_ids;\r\n        string[] memory question_desc;\r\n        uint[] memory question_exp;\r\n\r\n        for (uint i=1; i<=questionsCount; i++){\r\n            question_ids[i] = questions[i].question_id;\r\n            question_desc[i] = questions[i].description;\r\n            question_exp[i] = questions[i].expiryTime;\r\n        }\r\n        return (question_ids, question_desc, question_exp);\r\n    }\r\n\r\n    function getFilteredQuestions(bool isOpen) public returns (uint[] memory , string[] memory , uint[] memory){\r\n        updateQuestionStatus();\r\n\r\n        uint[] memory question_ids;\r\n        string[] memory question_desc;\r\n        uint[] memory question_exp;\r\n\r\n        for(uint i=1; i<=questionsCount; i++){\r\n            if(questions[i].open == isOpen){\r\n                question_ids[i] = questions[i].question_id;\r\n                question_desc[i] = questions[i].description;\r\n                question_exp[i] = questions[i].expiryTime;\r\n            }\r\n        }\r\n\r\n        return (question_ids, question_desc, question_exp);\r\n    }\r\n\r\n    function getQuestionById(uint qid) public returns (uint, string memory, uint, string[] memory, uint[] memory) {\r\n        updateQuestionStatus();\r\n        require(qid <= questionsCount);\r\n\r\n        Question memory qtn;\r\n\r\n        for(uint i=1; i<=questionsCount; i++){\r\n            if(questions[i].question_id == qid){\r\n                qtn = questions[i];\r\n                break;\r\n            }\r\n        }\r\n\r\n        string[] memory opt_desc;\r\n        uint[] memory opt_count;\r\n\r\n        opt_desc[0] = qtn.option1.description;\r\n        opt_desc[1] = qtn.option2.description;\r\n        opt_desc[2] = qtn.option3.description;\r\n        opt_count[0] = qtn.option1.individualCount;\r\n        opt_count[1] = qtn.option2.individualCount;\r\n        opt_count[2] = qtn.option3.individualCount;\r\n\r\n        \r\n\r\n        // for(uint j=0; j<=3; j++){\r\n        //     opt_desc[j] = qtn.options[j].description;\r\n        //     opt_count[j] = qtn.options[j].individualCount;\r\n        // }\r\n\r\n        return (qtn.question_id, qtn.description, qtn.expiryTime, opt_desc, opt_count);\r\n        \r\n    }\r\n\r\n    function closeQuestion(uint question_id) public returns (uint){\r\n        require(question_id <= questionsCount);\r\n        require(questions[question_id].open == true);\r\n\r\n        Question memory qtn = questions[question_id];\r\n\r\n        //Arbitration arb = Arbitration(qtn.arbitrator);\r\n        // arb.addDetails(qtn.description, qtn.options);\r\n\r\n        //uint correct_prediction = arb.selectWinner();\r\n\r\n        Option memory correct_option = qtn.option1;\r\n\r\n        //Option memory correct_option = qtn.options[correct_prediction];\r\n\r\n        qtn.owner.transfer(qtn.deposit);\r\n\r\n        uint total_reward = qtn.question_balance;\r\n\r\n        for(uint i=1; i<=correct_option.individualCount; i++){\r\n            address payable reward_address = correct_option.addresses[i];\r\n            uint reward_amount = correct_option.individual_bets[i] / correct_option.option_balance * total_reward;\r\n\r\n            require(reward_amount <= qtn.question_balance);\r\n            qtn.question_balance -= reward_amount;\r\n            reward_address.transfer(reward_amount);\r\n        }\r\n\r\n        qtn.open = false;\r\n\r\n        return question_id;\r\n    }\r\n\r\n    function makeBet(uint question_id, uint option_id) public payable returns (uint){\r\n        require(questions[question_id].open == true);\r\n\r\n        Question memory qtn = questions[question_id];\r\n        //Option memory opt = qtn.options[option_id];\r\n\r\n        Option memory opt;\r\n\r\n        if (option_id == 0){\r\n            opt = qtn.option1;\r\n        }\r\n        else if (option_id == 1){\r\n            opt = qtn.option2;\r\n        }\r\n        else {\r\n            opt = qtn.option3;\r\n        }\r\n\r\n        uint index;\r\n        for (uint i=0; i<opt.addresses.length; i++){\r\n            if(opt.addresses[i] == msg.sender){\r\n                index = i;\r\n                break;\r\n            }\r\n\r\n            if(i == opt.addresses.length-1){\r\n                index = i+1;\r\n                opt.addresses[index] = msg.sender;\r\n                opt.individualCount += 1;\r\n\r\n            }\r\n        }\r\n\r\n        opt.individual_bets[index] += msg.value;\r\n        opt.option_balance += msg.value;\r\n\r\n        qtn.question_balance += msg.value;\r\n\r\n        return question_id;\r\n    }\r\n    \r\n}",
  "sourcePath": "C:/Users/Stella Marcella Lie/Desktop/CE4153/contracts/Bet.sol",
  "compiler": {
    "name": "solc",
    "version": "0.5.16+commit.9c3226ce.Emscripten.clang"
  },
  "schemaVersion": "3.3.1",
  "updatedAt": "2020-11-06T11:05:45.839Z",
  "devdoc": {
    "methods": {}
  },
  "userdoc": {
    "methods": {}
  }
}