{
  "contractName": "Bet",
  "abi": [
    {
      "inputs": [],
      "payable": false,
      "stateMutability": "nonpayable",
      "type": "constructor"
    },
    {
      "anonymous": false,
      "inputs": [
        {
          "indexed": false,
          "internalType": "address",
          "name": "accountAddress",
          "type": "address"
        },
        {
          "indexed": false,
          "internalType": "uint256",
          "name": "amount",
          "type": "uint256"
        }
      ],
      "name": "LogBetMade",
      "type": "event"
    },
    {
      "constant": true,
      "inputs": [],
      "name": "owner",
      "outputs": [
        {
          "internalType": "address",
          "name": "",
          "type": "address"
        }
      ],
      "payable": false,
      "stateMutability": "view",
      "type": "function"
    },
    {
      "constant": true,
      "inputs": [
        {
          "internalType": "uint256",
          "name": "",
          "type": "uint256"
        }
      ],
      "name": "questions",
      "outputs": [
        {
          "internalType": "uint256",
          "name": "question_id",
          "type": "uint256"
        },
        {
          "internalType": "address payable",
          "name": "owner",
          "type": "address"
        },
        {
          "internalType": "string",
          "name": "description",
          "type": "string"
        },
        {
          "internalType": "uint256",
          "name": "expiryTime",
          "type": "uint256"
        },
        {
          "internalType": "bool",
          "name": "open",
          "type": "bool"
        },
        {
          "internalType": "address",
          "name": "arbitrator",
          "type": "address"
        },
        {
          "internalType": "uint256",
          "name": "question_balance",
          "type": "uint256"
        },
        {
          "internalType": "uint256",
          "name": "deposit",
          "type": "uint256"
        },
        {
          "components": [
            {
              "internalType": "uint256",
              "name": "option_id",
              "type": "uint256"
            },
            {
              "internalType": "string",
              "name": "description",
              "type": "string"
            },
            {
              "internalType": "uint256",
              "name": "option_balance",
              "type": "uint256"
            },
            {
              "internalType": "address payable[]",
              "name": "addresses",
              "type": "address[]"
            },
            {
              "internalType": "uint256[]",
              "name": "individual_bets",
              "type": "uint256[]"
            },
            {
              "internalType": "uint256",
              "name": "individualCount",
              "type": "uint256"
            }
          ],
          "internalType": "struct Bet.Option",
          "name": "option1",
          "type": "tuple"
        },
        {
          "components": [
            {
              "internalType": "uint256",
              "name": "option_id",
              "type": "uint256"
            },
            {
              "internalType": "string",
              "name": "description",
              "type": "string"
            },
            {
              "internalType": "uint256",
              "name": "option_balance",
              "type": "uint256"
            },
            {
              "internalType": "address payable[]",
              "name": "addresses",
              "type": "address[]"
            },
            {
              "internalType": "uint256[]",
              "name": "individual_bets",
              "type": "uint256[]"
            },
            {
              "internalType": "uint256",
              "name": "individualCount",
              "type": "uint256"
            }
          ],
          "internalType": "struct Bet.Option",
          "name": "option2",
          "type": "tuple"
        },
        {
          "components": [
            {
              "internalType": "uint256",
              "name": "option_id",
              "type": "uint256"
            },
            {
              "internalType": "string",
              "name": "description",
              "type": "string"
            },
            {
              "internalType": "uint256",
              "name": "option_balance",
              "type": "uint256"
            },
            {
              "internalType": "address payable[]",
              "name": "addresses",
              "type": "address[]"
            },
            {
              "internalType": "uint256[]",
              "name": "individual_bets",
              "type": "uint256[]"
            },
            {
              "internalType": "uint256",
              "name": "individualCount",
              "type": "uint256"
            }
          ],
          "internalType": "struct Bet.Option",
          "name": "option3",
          "type": "tuple"
        }
      ],
      "payable": false,
      "stateMutability": "view",
      "type": "function"
    },
    {
      "constant": true,
      "inputs": [],
      "name": "questionsCount",
      "outputs": [
        {
          "internalType": "uint256",
          "name": "",
          "type": "uint256"
        }
      ],
      "payable": false,
      "stateMutability": "view",
      "type": "function"
    },
    {
      "constant": false,
      "inputs": [
        {
          "internalType": "string",
          "name": "_desc",
          "type": "string"
        },
        {
          "internalType": "uint256",
          "name": "_expiryTime",
          "type": "uint256"
        },
        {
          "internalType": "address",
          "name": "_arbitrator",
          "type": "address"
        },
        {
          "internalType": "string[]",
          "name": "_options",
          "type": "string[]"
        }
      ],
      "name": "addQuestion",
      "outputs": [
        {
          "internalType": "uint256",
          "name": "",
          "type": "uint256"
        }
      ],
      "payable": true,
      "stateMutability": "payable",
      "type": "function"
    },
    {
      "constant": false,
      "inputs": [],
      "name": "getAllQuestions",
      "outputs": [
        {
          "internalType": "uint256[]",
          "name": "",
          "type": "uint256[]"
        },
        {
          "internalType": "string[]",
          "name": "",
          "type": "string[]"
        },
        {
          "internalType": "uint256[]",
          "name": "",
          "type": "uint256[]"
        }
      ],
      "payable": false,
      "stateMutability": "nonpayable",
      "type": "function"
    },
    {
      "constant": false,
      "inputs": [
        {
          "internalType": "bool",
          "name": "isOpen",
          "type": "bool"
        }
      ],
      "name": "getFilteredQuestions",
      "outputs": [
        {
          "internalType": "uint256[]",
          "name": "",
          "type": "uint256[]"
        },
        {
          "internalType": "string[]",
          "name": "",
          "type": "string[]"
        },
        {
          "internalType": "uint256[]",
          "name": "",
          "type": "uint256[]"
        }
      ],
      "payable": false,
      "stateMutability": "nonpayable",
      "type": "function"
    },
    {
      "constant": false,
      "inputs": [
        {
          "internalType": "uint256",
          "name": "qid",
          "type": "uint256"
        }
      ],
      "name": "getQuestionById",
      "outputs": [
        {
          "internalType": "uint256",
          "name": "",
          "type": "uint256"
        },
        {
          "internalType": "string",
          "name": "",
          "type": "string"
        },
        {
          "internalType": "uint256",
          "name": "",
          "type": "uint256"
        },
        {
          "internalType": "string[]",
          "name": "",
          "type": "string[]"
        },
        {
          "internalType": "uint256[]",
          "name": "",
          "type": "uint256[]"
        }
      ],
      "payable": false,
      "stateMutability": "nonpayable",
      "type": "function"
    },
    {
      "constant": false,
      "inputs": [
        {
          "internalType": "uint256",
          "name": "question_id",
          "type": "uint256"
        }
      ],
      "name": "closeQuestion",
      "outputs": [
        {
          "internalType": "uint256",
          "name": "",
          "type": "uint256"
        }
      ],
      "payable": false,
      "stateMutability": "nonpayable",
      "type": "function"
    },
    {
      "constant": false,
      "inputs": [
        {
          "internalType": "uint256",
          "name": "question_id",
          "type": "uint256"
        },
        {
          "internalType": "uint256",
          "name": "option_id",
          "type": "uint256"
        }
      ],
      "name": "makeBet",
      "outputs": [
        {
          "internalType": "uint256",
          "name": "",
          "type": "uint256"
        }
      ],
      "payable": true,
      "stateMutability": "payable",
      "type": "function"
    }
  ],
  "bytecode": "0x608060405234801561001057600080fd5b5033600260006101000a81548173ffffffffffffffffffffffffffffffffffffffff021916908373ffffffffffffffffffffffffffffffffffffffff16021790555061373d806100616000396000f3fe6080604052600436106100865760003560e01c8063be57d0bc11610059578063be57d0bc14610155578063c09f32e814610185578063df898e32146101c2578063e25f3e02146101f2578063f0534de91461023357610086565b80632af9338e1461008b57806331b1b978146100b85780637c1fb3c3146100ff5780638da5cb5b1461012a575b600080fd5b34801561009757600080fd5b506100a0610272565b6040516100af939291906132a9565b60405180910390f35b3480156100c457600080fd5b506100df60048036036100da9190810190612eba565b6103d4565b6040516100f69b9a99989796959493929190613310565b60405180910390f35b34801561010b57600080fd5b50610114610a23565b60405161012191906132f5565b60405180910390f35b34801561013657600080fd5b5061013f610a29565b60405161014c919061328e565b60405180910390f35b61016f600480360361016a9190810190612e27565b610a4f565b60405161017c91906132f5565b60405180910390f35b34801561019157600080fd5b506101ac60048036036101a79190810190612eba565b610e7b565b6040516101b991906132f5565b60405180910390f35b6101dc60048036036101d79190810190612ee3565b6116fb565b6040516101e991906132f5565b60405180910390f35b3480156101fe57600080fd5b5061021960048036036102149190810190612eba565b611f8d565b60405161022a9594939291906133d7565b60405180910390f35b34801561023f57600080fd5b5061025a60048036036102559190810190612dfe565b6127d0565b604051610269939291906132a9565b60405180910390f35b606080606061027f612963565b60608060606000600190505b60015481116103c257600080828152602001908152602001600020600001548482815181106102b657fe5b6020026020010181815250506000808281526020019081526020016000206002018054600181600116156101000203166002900480601f01602080910402602001604051908101604052809291908181526020018280546001816001161561010002031660029004801561036b5780601f106103405761010080835404028352916020019161036b565b820191906000526020600020905b81548152906001019060200180831161034e57829003601f168201915b505050505083828151811061037c57fe5b6020026020010181905250600080828152602001908152602001600020600301548282815181106103a957fe5b602002602001018181525050808060010191505061028b565b50828282955095509550505050909192565b60006020528060005260406000206000915090508060000154908060010160009054906101000a900473ffffffffffffffffffffffffffffffffffffffff1690806002018054600181600116156101000203166002900480601f0160208091040260200160405190810160405280929190818152602001828054600181600116156101000203166002900480156104ac5780601f10610481576101008083540402835291602001916104ac565b820191906000526020600020905b81548152906001019060200180831161048f57829003601f168201915b5050505050908060030154908060040160009054906101000a900460ff16908060040160019054906101000a900473ffffffffffffffffffffffffffffffffffffffff1690806005015490806006015490806007016040518060c001604052908160008201548152602001600182018054600181600116156101000203166002900480601f0160208091040260200160405190810160405280929190818152602001828054600181600116156101000203166002900480156105af5780601f10610584576101008083540402835291602001916105af565b820191906000526020600020905b81548152906001019060200180831161059257829003601f168201915b50505050508152602001600282015481526020016003820180548060200260200160405190810160405280929190818152602001828054801561064757602002820191906000526020600020905b8160009054906101000a900473ffffffffffffffffffffffffffffffffffffffff1673ffffffffffffffffffffffffffffffffffffffff16815260200190600101908083116105fd575b505050505081526020016004820180548060200260200160405190810160405280929190818152602001828054801561069f57602002820191906000526020600020905b81548152602001906001019080831161068b575b505050505081526020016005820154815250509080600d016040518060c001604052908160008201548152602001600182018054600181600116156101000203166002900480601f0160208091040260200160405190810160405280929190818152602001828054600181600116156101000203166002900480156107655780601f1061073a57610100808354040283529160200191610765565b820191906000526020600020905b81548152906001019060200180831161074857829003601f168201915b5050505050815260200160028201548152602001600382018054806020026020016040519081016040528092919081815260200182805480156107fd57602002820191906000526020600020905b8160009054906101000a900473ffffffffffffffffffffffffffffffffffffffff1673ffffffffffffffffffffffffffffffffffffffff16815260200190600101908083116107b3575b505050505081526020016004820180548060200260200160405190810160405280929190818152602001828054801561085557602002820191906000526020600020905b815481526020019060010190808311610841575b5050505050815260200160058201548152505090806013016040518060c001604052908160008201548152602001600182018054600181600116156101000203166002900480601f01602080910402602001604051908101604052809291908181526020018280546001816001161561010002031660029004801561091b5780601f106108f05761010080835404028352916020019161091b565b820191906000526020600020905b8154815290600101906020018083116108fe57829003601f168201915b5050505050815260200160028201548152602001600382018054806020026020016040519081016040528092919081815260200182805480156109b357602002820191906000526020600020905b8160009054906101000a900473ffffffffffffffffffffffffffffffffffffffff1673ffffffffffffffffffffffffffffffffffffffff1681526020019060010190808311610969575b5050505050815260200160048201805480602002602001604051908101604052809291908181526020018280548015610a0b57602002820191906000526020600020905b8154815260200190600101908083116109f7575b5050505050815260200160058201548152505090508b565b60015481565b600260009054906101000a900473ffffffffffffffffffffffffffffffffffffffff1681565b60006001341015610a5f57600080fd5b600160008154809291906001019190505550606080610a7c6129de565b6040518060c001604052806000815260200186600081518110610a9b57fe5b602002602001015181526020016000815260200184815260200183815260200160008152509050610aca6129de565b6040518060c001604052806001815260200187600181518110610ae957fe5b602002602001015181526020016000815260200185815260200184815260200160008152509050610b186129de565b6040518060c001604052806002815260200188600281518110610b3757fe5b60200260200101518152602001600081526020018681526020018581526020016000815250905060405180610160016040528060015481526020013373ffffffffffffffffffffffffffffffffffffffff1681526020018b81526020018a81526020016001151581526020018973ffffffffffffffffffffffffffffffffffffffff168152602001600081526020013481526020018481526020018381526020018281525060008060015481526020019081526020016000206000820151816000015560208201518160010160006101000a81548173ffffffffffffffffffffffffffffffffffffffff021916908373ffffffffffffffffffffffffffffffffffffffff1602179055506040820151816002019080519060200190610c5d929190612a14565b506060820151816003015560808201518160040160006101000a81548160ff02191690831515021790555060a08201518160040160016101000a81548173ffffffffffffffffffffffffffffffffffffffff021916908373ffffffffffffffffffffffffffffffffffffffff16021790555060c0820151816005015560e0820151816006015561010082015181600701600082015181600001556020820151816001019080519060200190610d13929190612a14565b50604082015181600201556060820151816003019080519060200190610d3a929190612a94565b506080820151816004019080519060200190610d57929190612b1e565b5060a08201518160050155505061012082015181600d01600082015181600001556020820151816001019080519060200190610d94929190612a14565b50604082015181600201556060820151816003019080519060200190610dbb929190612a94565b506080820151816004019080519060200190610dd8929190612b1e565b5060a08201518160050155505061014082015181601301600082015181600001556020820151816001019080519060200190610e15929190612a14565b50604082015181600201556060820151816003019080519060200190610e3c929190612a94565b506080820151816004019080519060200190610e59929190612b1e565b5060a08201518160050155505090505060015495505050505050949350505050565b6000600154821115610e8c57600080fd5b6001151560008084815260200190815260200160002060040160009054906101000a900460ff16151514610ebf57600080fd5b610ec7612b6b565b60008084815260200190815260200160002060405180610160016040529081600082015481526020016001820160009054906101000a900473ffffffffffffffffffffffffffffffffffffffff1673ffffffffffffffffffffffffffffffffffffffff1673ffffffffffffffffffffffffffffffffffffffff168152602001600282018054600181600116156101000203166002900480601f016020809104026020016040519081016040528092919081815260200182805460018160011615610100020316600290048015610fde5780601f10610fb357610100808354040283529160200191610fde565b820191906000526020600020905b815481529060010190602001808311610fc157829003601f168201915b50505050508152602001600382015481526020016004820160009054906101000a900460ff161515151581526020016004820160019054906101000a900473ffffffffffffffffffffffffffffffffffffffff1673ffffffffffffffffffffffffffffffffffffffff1673ffffffffffffffffffffffffffffffffffffffff1681526020016005820154815260200160068201548152602001600782016040518060c001604052908160008201548152602001600182018054600181600116156101000203166002900480601f0160208091040260200160405190810160405280929190818152602001828054600181600116156101000203166002900480156111295780601f106110fe57610100808354040283529160200191611129565b820191906000526020600020905b81548152906001019060200180831161110c57829003601f168201915b5050505050815260200160028201548152602001600382018054806020026020016040519081016040528092919081815260200182805480156111c157602002820191906000526020600020905b8160009054906101000a900473ffffffffffffffffffffffffffffffffffffffff1673ffffffffffffffffffffffffffffffffffffffff1681526020019060010190808311611177575b505050505081526020016004820180548060200260200160405190810160405280929190818152602001828054801561121957602002820191906000526020600020905b815481526020019060010190808311611205575b505050505081526020016005820154815250508152602001600d82016040518060c001604052908160008201548152602001600182018054600181600116156101000203166002900480601f0160208091040260200160405190810160405280929190818152602001828054600181600116156101000203166002900480156112e35780601f106112b8576101008083540402835291602001916112e3565b820191906000526020600020905b8154815290600101906020018083116112c657829003601f168201915b50505050508152602001600282015481526020016003820180548060200260200160405190810160405280929190818152602001828054801561137b57602002820191906000526020600020905b8160009054906101000a900473ffffffffffffffffffffffffffffffffffffffff1673ffffffffffffffffffffffffffffffffffffffff1681526020019060010190808311611331575b50505050508152602001600482018054806020026020016040519081016040528092919081815260200182805480156113d357602002820191906000526020600020905b8154815260200190600101908083116113bf575b505050505081526020016005820154815250508152602001601382016040518060c001604052908160008201548152602001600182018054600181600116156101000203166002900480601f01602080910402602001604051908101604052809291908181526020018280546001816001161561010002031660029004801561149d5780601f106114725761010080835404028352916020019161149d565b820191906000526020600020905b81548152906001019060200180831161148057829003601f168201915b50505050508152602001600282015481526020016003820180548060200260200160405190810160405280929190818152602001828054801561153557602002820191906000526020600020905b8160009054906101000a900473ffffffffffffffffffffffffffffffffffffffff1673ffffffffffffffffffffffffffffffffffffffff16815260200190600101908083116114eb575b505050505081526020016004820180548060200260200160405190810160405280929190818152602001828054801561158d57602002820191906000526020600020905b815481526020019060010190808311611579575b505050505081526020016005820154815250508152505090506115ae6129de565b8161010001519050816020015173ffffffffffffffffffffffffffffffffffffffff166108fc8360e001519081150290604051600060405180830381858888f19350505050158015611604573d6000803e3d6000fd5b5060008260c0015190506000600190505b8260a0015181116116de5760008360600151828151811061163257fe5b6020026020010151905060008385604001518660800151858151811061165457fe5b60200260200101518161166357fe5b040290508560c0015181111561167857600080fd5b808660c00181815103915081815250508173ffffffffffffffffffffffffffffffffffffffff166108fc829081150290604051600060405180830381858888f193505050501580156116ce573d6000803e3d6000fd5b5050508080600101915050611615565b506000836080019015159081151581525050849350505050919050565b60006001151560008085815260200190815260200160002060040160009054906101000a900460ff1615151461173057600080fd5b611738612b6b565b60008085815260200190815260200160002060405180610160016040529081600082015481526020016001820160009054906101000a900473ffffffffffffffffffffffffffffffffffffffff1673ffffffffffffffffffffffffffffffffffffffff1673ffffffffffffffffffffffffffffffffffffffff168152602001600282018054600181600116156101000203166002900480601f01602080910402602001604051908101604052809291908181526020018280546001816001161561010002031660029004801561184f5780601f106118245761010080835404028352916020019161184f565b820191906000526020600020905b81548152906001019060200180831161183257829003601f168201915b50505050508152602001600382015481526020016004820160009054906101000a900460ff161515151581526020016004820160019054906101000a900473ffffffffffffffffffffffffffffffffffffffff1673ffffffffffffffffffffffffffffffffffffffff1673ffffffffffffffffffffffffffffffffffffffff1681526020016005820154815260200160068201548152602001600782016040518060c001604052908160008201548152602001600182018054600181600116156101000203166002900480601f01602080910402602001604051908101604052809291908181526020018280546001816001161561010002031660029004801561199a5780601f1061196f5761010080835404028352916020019161199a565b820191906000526020600020905b81548152906001019060200180831161197d57829003601f168201915b505050505081526020016002820154815260200160038201805480602002602001604051908101604052809291908181526020018280548015611a3257602002820191906000526020600020905b8160009054906101000a900473ffffffffffffffffffffffffffffffffffffffff1673ffffffffffffffffffffffffffffffffffffffff16815260200190600101908083116119e8575b5050505050815260200160048201805480602002602001604051908101604052809291908181526020018280548015611a8a57602002820191906000526020600020905b815481526020019060010190808311611a76575b505050505081526020016005820154815250508152602001600d82016040518060c001604052908160008201548152602001600182018054600181600116156101000203166002900480601f016020809104026020016040519081016040528092919081815260200182805460018160011615610100020316600290048015611b545780601f10611b2957610100808354040283529160200191611b54565b820191906000526020600020905b815481529060010190602001808311611b3757829003601f168201915b505050505081526020016002820154815260200160038201805480602002602001604051908101604052809291908181526020018280548015611bec57602002820191906000526020600020905b8160009054906101000a900473ffffffffffffffffffffffffffffffffffffffff1673ffffffffffffffffffffffffffffffffffffffff1681526020019060010190808311611ba2575b5050505050815260200160048201805480602002602001604051908101604052809291908181526020018280548015611c4457602002820191906000526020600020905b815481526020019060010190808311611c30575b505050505081526020016005820154815250508152602001601382016040518060c001604052908160008201548152602001600182018054600181600116156101000203166002900480601f016020809104026020016040519081016040528092919081815260200182805460018160011615610100020316600290048015611d0e5780601f10611ce357610100808354040283529160200191611d0e565b820191906000526020600020905b815481529060010190602001808311611cf157829003601f168201915b505050505081526020016002820154815260200160038201805480602002602001604051908101604052809291908181526020018280548015611da657602002820191906000526020600020905b8160009054906101000a900473ffffffffffffffffffffffffffffffffffffffff1673ffffffffffffffffffffffffffffffffffffffff1681526020019060010190808311611d5c575b5050505050815260200160048201805480602002602001604051908101604052809291908181526020018280548015611dfe57602002820191906000526020600020905b815481526020019060010190808311611dea575b50505050508152602001600582015481525050815250509050611e1f6129de565b6000841415611e35578161010001519050611e55565b6001841415611e4b578161012001519050611e54565b81610140015190505b5b600080600090505b826060015151811015611f3d573373ffffffffffffffffffffffffffffffffffffffff1683606001518281518110611e9157fe5b602002602001015173ffffffffffffffffffffffffffffffffffffffff161415611ebd57809150611f3d565b600183606001515103811415611f30576001810191503383606001518381518110611ee457fe5b602002602001019073ffffffffffffffffffffffffffffffffffffffff16908173ffffffffffffffffffffffffffffffffffffffff168152505060018360a00181815101915081815250505b8080600101915050611e5d565b503482608001518281518110611f4f57fe5b60200260200101818151019150818152505034826040018181510191508181525050348360c001818151019150818152505085935050505092915050565b600060606000606080611f9e612963565b600154861115611fad57600080fd5b611fb5612b6b565b6000600190505b60015481116126d357876000808381526020019081526020016000206000015414156126c65760008082815260200190815260200160002060405180610160016040529081600082015481526020016001820160009054906101000a900473ffffffffffffffffffffffffffffffffffffffff1673ffffffffffffffffffffffffffffffffffffffff1673ffffffffffffffffffffffffffffffffffffffff168152602001600282018054600181600116156101000203166002900480601f0160208091040260200160405190810160405280929190818152602001828054600181600116156101000203166002900480156120f95780601f106120ce576101008083540402835291602001916120f9565b820191906000526020600020905b8154815290600101906020018083116120dc57829003601f168201915b50505050508152602001600382015481526020016004820160009054906101000a900460ff161515151581526020016004820160019054906101000a900473ffffffffffffffffffffffffffffffffffffffff1673ffffffffffffffffffffffffffffffffffffffff1673ffffffffffffffffffffffffffffffffffffffff1681526020016005820154815260200160068201548152602001600782016040518060c001604052908160008201548152602001600182018054600181600116156101000203166002900480601f0160208091040260200160405190810160405280929190818152602001828054600181600116156101000203166002900480156122445780601f1061221957610100808354040283529160200191612244565b820191906000526020600020905b81548152906001019060200180831161222757829003601f168201915b5050505050815260200160028201548152602001600382018054806020026020016040519081016040528092919081815260200182805480156122dc57602002820191906000526020600020905b8160009054906101000a900473ffffffffffffffffffffffffffffffffffffffff1673ffffffffffffffffffffffffffffffffffffffff1681526020019060010190808311612292575b505050505081526020016004820180548060200260200160405190810160405280929190818152602001828054801561233457602002820191906000526020600020905b815481526020019060010190808311612320575b505050505081526020016005820154815250508152602001600d82016040518060c001604052908160008201548152602001600182018054600181600116156101000203166002900480601f0160208091040260200160405190810160405280929190818152602001828054600181600116156101000203166002900480156123fe5780601f106123d3576101008083540402835291602001916123fe565b820191906000526020600020905b8154815290600101906020018083116123e157829003601f168201915b50505050508152602001600282015481526020016003820180548060200260200160405190810160405280929190818152602001828054801561249657602002820191906000526020600020905b8160009054906101000a900473ffffffffffffffffffffffffffffffffffffffff1673ffffffffffffffffffffffffffffffffffffffff168152602001906001019080831161244c575b50505050508152602001600482018054806020026020016040519081016040528092919081815260200182805480156124ee57602002820191906000526020600020905b8154815260200190600101908083116124da575b505050505081526020016005820154815250508152602001601382016040518060c001604052908160008201548152602001600182018054600181600116156101000203166002900480601f0160208091040260200160405190810160405280929190818152602001828054600181600116156101000203166002900480156125b85780601f1061258d576101008083540402835291602001916125b8565b820191906000526020600020905b81548152906001019060200180831161259b57829003601f168201915b50505050508152602001600282015481526020016003820180548060200260200160405190810160405280929190818152602001828054801561265057602002820191906000526020600020905b8160009054906101000a900473ffffffffffffffffffffffffffffffffffffffff1673ffffffffffffffffffffffffffffffffffffffff1681526020019060010190808311612606575b50505050508152602001600482018054806020026020016040519081016040528092919081815260200182805480156126a857602002820191906000526020600020905b815481526020019060010190808311612694575b505050505081526020016005820154815250508152505091506126d3565b8080600101915050611fbc565b5060608082610100015160200151826000815181106126ee57fe5b6020026020010181905250826101200151602001518260018151811061271057fe5b6020026020010181905250826101400151602001518260028151811061273257fe5b602002602001018190525082610100015160a001518160008151811061275457fe5b60200260200101818152505082610120015160a001518160018151811061277757fe5b60200260200101818152505082610140015160a001518160028151811061279a57fe5b60200260200101818152505082600001518360400151846060015184848393509750975097509750975050505091939590929450565b60608060606127dd612963565b60608060606000600190505b600154811161294f5787151560008083815260200190815260200160002060040160009054906101000a900460ff1615151415612942576000808281526020019081526020016000206000015484828151811061284257fe5b6020026020010181815250506000808281526020019081526020016000206002018054600181600116156101000203166002900480601f0160208091040260200160405190810160405280929190818152602001828054600181600116156101000203166002900480156128f75780601f106128cc576101008083540402835291602001916128f7565b820191906000526020600020905b8154815290600101906020018083116128da57829003601f168201915b505050505083828151811061290857fe5b60200260200101819052506000808281526020019081526020016000206003015482828151811061293557fe5b6020026020010181815250505b80806001019150506127e9565b508282829550955095505050509193909250565b6000600190505b60015481116129db576001151560008083815260200190815260200160002060040160009054906101000a900460ff1615151480156129be5750426000808381526020019081526020016000206003015411155b156129ce576129cc81610e7b565b505b808060010191505061296a565b50565b6040518060c001604052806000815260200160608152602001600081526020016060815260200160608152602001600081525090565b828054600181600116156101000203166002900490600052602060002090601f016020900481019282601f10612a5557805160ff1916838001178555612a83565b82800160010185558215612a83579182015b82811115612a82578251825591602001919060010190612a67565b5b509050612a909190612c05565b5090565b828054828255906000526020600020908101928215612b0d579160200282015b82811115612b0c5782518260006101000a81548173ffffffffffffffffffffffffffffffffffffffff021916908373ffffffffffffffffffffffffffffffffffffffff16021790555091602001919060010190612ab4565b5b509050612b1a9190612c2a565b5090565b828054828255906000526020600020908101928215612b5a579160200282015b82811115612b59578251825591602001919060010190612b3e565b5b509050612b679190612c05565b5090565b60405180610160016040528060008152602001600073ffffffffffffffffffffffffffffffffffffffff1681526020016060815260200160008152602001600015158152602001600073ffffffffffffffffffffffffffffffffffffffff1681526020016000815260200160008152602001612be5612c6d565b8152602001612bf2612c6d565b8152602001612bff612c6d565b81525090565b612c2791905b80821115612c23576000816000905550600101612c0b565b5090565b90565b612c6a91905b80821115612c6657600081816101000a81549073ffffffffffffffffffffffffffffffffffffffff021916905550600101612c30565b5090565b90565b6040518060c001604052806000815260200160608152602001600081526020016060815260200160608152602001600081525090565b600081359050612cb2816136b5565b92915050565b600082601f830112612cc957600080fd5b8135612cdc612cd78261346c565b61343f565b9150818183526020840193506020810190508360005b83811015612d225781358601612d088882612d41565b845260208401935060208301925050600181019050612cf2565b5050505092915050565b600081359050612d3b816136cc565b92915050565b600082601f830112612d5257600080fd5b8135612d65612d6082613494565b61343f565b91508082526020830160208301858383011115612d8157600080fd5b612d8c838284613662565b50505092915050565b600082601f830112612da657600080fd5b8135612db9612db4826134c0565b61343f565b91508082526020830160208301858383011115612dd557600080fd5b612de0838284613662565b50505092915050565b600081359050612df8816136e3565b92915050565b600060208284031215612e1057600080fd5b6000612e1e84828501612d2c565b91505092915050565b60008060008060808587031215612e3d57600080fd5b600085013567ffffffffffffffff811115612e5757600080fd5b612e6387828801612d95565b9450506020612e7487828801612de9565b9350506040612e8587828801612ca3565b925050606085013567ffffffffffffffff811115612ea257600080fd5b612eae87828801612cb8565b91505092959194509250565b600060208284031215612ecc57600080fd5b6000612eda84828501612de9565b91505092915050565b60008060408385031215612ef657600080fd5b6000612f0485828601612de9565b9250506020612f1585828601612de9565b9150509250929050565b6000612f2b8383612f63565b60208301905092915050565b6000612f438383613167565b905092915050565b6000612f578383613270565b60208301905092915050565b612f6c8161361a565b82525050565b612f7b8161361a565b82525050565b612f8a81613608565b82525050565b6000612f9b8261352c565b612fa581856135a2565b9350612fb0836134ec565b8060005b83811015612fe1578151612fc88882612f1f565b9750612fd38361356e565b925050600181019050612fb4565b5085935050505092915050565b6000612ff982613537565b61300381856135b3565b935083602082028501613015856134fc565b8060005b8581101561305157848403895281516130328582612f37565b945061303d8361357b565b925060208a01995050600181019050613019565b50829750879550505050505092915050565b600061306e8261354d565b61307881856135d5565b93506130838361351c565b8060005b838110156130b457815161309b8882612f4b565b97506130a683613595565b925050600181019050613087565b5085935050505092915050565b60006130cc82613542565b6130d681856135c4565b93506130e18361350c565b8060005b838110156131125781516130f98882612f4b565b975061310483613588565b9250506001810190506130e5565b5085935050505092915050565b6131288161362c565b82525050565b600061313982613563565b61314381856135f7565b9350613153818560208601613671565b61315c816136a4565b840191505092915050565b600061317282613558565b61317c81856135e6565b935061318c818560208601613671565b613195816136a4565b840191505092915050565b60006131ab82613558565b6131b581856135f7565b93506131c5818560208601613671565b6131ce816136a4565b840191505092915050565b600060c0830160008301516131f16000860182613270565b50602083015184820360208601526132098282613167565b915050604083015161321e6040860182613270565b50606083015184820360608601526132368282612f90565b9150506080830151848203608086015261325082826130c1565b91505060a083015161326560a0860182613270565b508091505092915050565b61327981613658565b82525050565b61328881613658565b82525050565b60006020820190506132a36000830184612f81565b92915050565b600060608201905081810360008301526132c38186613063565b905081810360208301526132d78185612fee565b905081810360408301526132eb8184613063565b9050949350505050565b600060208201905061330a600083018461327f565b92915050565b600061016082019050613326600083018e61327f565b613333602083018d612f72565b8181036040830152613345818c6131a0565b9050613354606083018b61327f565b613361608083018a61311f565b61336e60a0830189612f81565b61337b60c083018861327f565b61338860e083018761327f565b81810361010083015261339b81866131d9565b90508181036101208301526133b081856131d9565b90508181036101408301526133c581846131d9565b90509c9b505050505050505050505050565b600060a0820190506133ec600083018861327f565b81810360208301526133fe818761312e565b905061340d604083018661327f565b818103606083015261341f8185612fee565b905081810360808301526134338184613063565b90509695505050505050565b6000604051905081810181811067ffffffffffffffff8211171561346257600080fd5b8060405250919050565b600067ffffffffffffffff82111561348357600080fd5b602082029050602081019050919050565b600067ffffffffffffffff8211156134ab57600080fd5b601f19601f8301169050602081019050919050565b600067ffffffffffffffff8211156134d757600080fd5b601f19601f8301169050602081019050919050565b6000819050602082019050919050565b6000819050602082019050919050565b6000819050602082019050919050565b6000819050602082019050919050565b600081519050919050565b600081519050919050565b600081519050919050565b600081519050919050565b600081519050919050565b600081519050919050565b6000602082019050919050565b6000602082019050919050565b6000602082019050919050565b6000602082019050919050565b600082825260208201905092915050565b600082825260208201905092915050565b600082825260208201905092915050565b600082825260208201905092915050565b600082825260208201905092915050565b600082825260208201905092915050565b600061361382613638565b9050919050565b600061362582613638565b9050919050565b60008115159050919050565b600073ffffffffffffffffffffffffffffffffffffffff82169050919050565b6000819050919050565b82818337600083830152505050565b60005b8381101561368f578082015181840152602081019050613674565b8381111561369e576000848401525b50505050565b6000601f19601f8301169050919050565b6136be81613608565b81146136c957600080fd5b50565b6136d58161362c565b81146136e057600080fd5b50565b6136ec81613658565b81146136f757600080fd5b5056fea365627a7a72315820e4a37b390ffc97104d63ef66b513f9da4716b7cdf71c5a59c01d1779a70cf4266c6578706572696d656e74616cf564736f6c63430005100040",
  "source": "// SPDX-License-Identifier: MIT\r\npragma solidity >=0.4.22 <0.8.0;\r\npragma experimental ABIEncoderV2;\r\n\r\nimport \"./Arbitration.sol\";\r\n\r\ncontract Bet {\r\n\r\n    struct Option {\r\n        uint option_id;\r\n        string description;\r\n        uint option_balance;\r\n        address payable[] addresses;\r\n        uint[] individual_bets;\r\n        uint individualCount;\r\n\r\n    }\r\n\r\n    struct Question{\r\n        uint question_id;\r\n        address payable owner;\r\n        string description;\r\n        uint expiryTime;\r\n        bool open;\r\n        address arbitrator;\r\n        uint question_balance;\r\n        uint deposit;\r\n\r\n        Option option1;\r\n        Option option2;\r\n        Option option3;\r\n        \r\n    }\r\n\r\n    mapping(uint => Question) public questions;\r\n    uint public questionsCount;\r\n    address public owner;\r\n    event LogBetMade(address accountAddress, uint amount);\r\n\r\n    constructor () public {\r\n        owner = msg.sender;\r\n    }\r\n\r\n    function addQuestion(string memory _desc, uint _expiryTime, address _arbitrator, string[] memory _options) public payable returns (uint) {\r\n        require(msg.value >= 1);\r\n\r\n        questionsCount++;\r\n\r\n        address payable[] memory empty_address;\r\n        uint[] memory empty_bets;\r\n\r\n        Option memory dummyOption1 = Option({\r\n            option_id: 0,\r\n            description: _options[0],\r\n            option_balance: 0,\r\n            addresses: empty_address,\r\n            individual_bets: empty_bets,\r\n            individualCount: 0\r\n        });\r\n\r\n        Option memory dummyOption2 = Option({\r\n            option_id: 1,\r\n            description: _options[1],\r\n            option_balance: 0,\r\n            addresses: empty_address,\r\n            individual_bets: empty_bets,\r\n            individualCount: 0\r\n        });\r\n\r\n        Option memory dummyOption3 = Option({\r\n            option_id: 2,\r\n            description: _options[2],\r\n            option_balance: 0,\r\n            addresses: empty_address,\r\n            individual_bets: empty_bets,\r\n            individualCount: 0\r\n        });\r\n\r\n        questions[questionsCount] = Question({\r\n            question_id: questionsCount, \r\n            owner: msg.sender, \r\n            description: _desc, \r\n            expiryTime: _expiryTime,\r\n            open: true,\r\n            arbitrator: _arbitrator,\r\n            option1: dummyOption1,\r\n            option2: dummyOption2,\r\n            option3: dummyOption3,\r\n            question_balance: 0,\r\n            deposit: msg.value}\r\n        );\r\n\r\n        return questionsCount;\r\n    }\r\n\r\n    function updateQuestionStatus() private {\r\n        for(uint i=1; i<=questionsCount; i++){\r\n            if((questions[i].open == true) && (questions[i].expiryTime <= block.timestamp)){\r\n                closeQuestion(i);\r\n            }\r\n        }\r\n    }\r\n\r\n    function getAllQuestions() public returns (uint[] memory , string[] memory , uint[] memory){\r\n        updateQuestionStatus();\r\n\r\n        uint[] memory question_ids;\r\n        string[] memory question_desc;\r\n        uint[] memory question_exp;\r\n\r\n        for (uint i=1; i<=questionsCount; i++){\r\n            question_ids[i] = questions[i].question_id;\r\n            question_desc[i] = questions[i].description;\r\n            question_exp[i] = questions[i].expiryTime;\r\n        }\r\n        return (question_ids, question_desc, question_exp);\r\n    }\r\n\r\n    function getFilteredQuestions(bool isOpen) public returns (uint[] memory , string[] memory , uint[] memory){\r\n        updateQuestionStatus();\r\n\r\n        uint[] memory question_ids;\r\n        string[] memory question_desc;\r\n        uint[] memory question_exp;\r\n\r\n        for(uint i=1; i<=questionsCount; i++){\r\n            if(questions[i].open == isOpen){\r\n                question_ids[i] = questions[i].question_id;\r\n                question_desc[i] = questions[i].description;\r\n                question_exp[i] = questions[i].expiryTime;\r\n            }\r\n        }\r\n\r\n        return (question_ids, question_desc, question_exp);\r\n    }\r\n\r\n    function getQuestionById(uint qid) public returns (uint, string memory, uint, string[] memory, uint[] memory) {\r\n        updateQuestionStatus();\r\n        require(qid <= questionsCount);\r\n\r\n        Question memory qtn;\r\n\r\n        for(uint i=1; i<=questionsCount; i++){\r\n            if(questions[i].question_id == qid){\r\n                qtn = questions[i];\r\n                break;\r\n            }\r\n        }\r\n\r\n        string[] memory opt_desc;\r\n        uint[] memory opt_count;\r\n\r\n        opt_desc[0] = qtn.option1.description;\r\n        opt_desc[1] = qtn.option2.description;\r\n        opt_desc[2] = qtn.option3.description;\r\n        opt_count[0] = qtn.option1.individualCount;\r\n        opt_count[1] = qtn.option2.individualCount;\r\n        opt_count[2] = qtn.option3.individualCount;\r\n\r\n        // for(uint j=0; j<=3; j++){\r\n        //     opt_desc[j] = qtn.options[j].description;\r\n        //     opt_count[j] = qtn.options[j].individualCount;\r\n        // }\r\n\r\n        return (qtn.question_id, qtn.description, qtn.expiryTime, opt_desc, opt_count);\r\n        \r\n    }\r\n\r\n    function closeQuestion(uint question_id) public returns (uint){\r\n        require(question_id <= questionsCount);\r\n        require(questions[question_id].open == true);\r\n\r\n        Question memory qtn = questions[question_id];\r\n\r\n        //Arbitration arb = Arbitration(qtn.arbitrator);\r\n        // arb.addDetails(qtn.description, qtn.options);\r\n\r\n        //uint correct_prediction = arb.selectWinner();\r\n\r\n        Option memory correct_option = qtn.option1;\r\n\r\n        //Option memory correct_option = qtn.options[correct_prediction];\r\n\r\n        qtn.owner.transfer(qtn.deposit);\r\n\r\n        uint total_reward = qtn.question_balance;\r\n\r\n        for(uint i=1; i<=correct_option.individualCount; i++){\r\n            address payable reward_address = correct_option.addresses[i];\r\n            uint reward_amount = correct_option.individual_bets[i] / correct_option.option_balance * total_reward;\r\n\r\n            require(reward_amount <= qtn.question_balance);\r\n            qtn.question_balance -= reward_amount;\r\n            reward_address.transfer(reward_amount);\r\n        }\r\n\r\n        qtn.open = false;\r\n\r\n        return question_id;\r\n    }\r\n\r\n    function makeBet(uint question_id, uint option_id) public payable returns (uint){\r\n        require(questions[question_id].open == true);\r\n\r\n        Question memory qtn = questions[question_id];\r\n        //Option memory opt = qtn.options[option_id];\r\n\r\n        Option memory opt;\r\n\r\n        if (option_id == 0){\r\n            opt = qtn.option1;\r\n        }\r\n        else if (option_id == 1){\r\n            opt = qtn.option2;\r\n        }\r\n        else {\r\n            opt = qtn.option3;\r\n        }\r\n\r\n        uint index;\r\n        for (uint i=0; i<opt.addresses.length; i++){\r\n            if(opt.addresses[i] == msg.sender){\r\n                index = i;\r\n                break;\r\n            }\r\n\r\n            if(i == opt.addresses.length-1){\r\n                index = i+1;\r\n                opt.addresses[index] = msg.sender;\r\n                opt.individualCount += 1;\r\n\r\n            }\r\n        }\r\n\r\n        opt.individual_bets[index] += msg.value;\r\n        opt.option_balance += msg.value;\r\n\r\n        qtn.question_balance += msg.value;\r\n\r\n        return question_id;\r\n    }\r\n    \r\n}",
  "sourcePath": "C:/Users/Stella Marcella Lie/Desktop/CE4153/contracts/Bet.sol",
  "compiler": {
    "name": "solc",
    "version": "0.5.16+commit.9c3226ce.Emscripten.clang"
  },
  "schemaVersion": "3.3.1",
  "updatedAt": "2020-11-03T06:50:58.422Z",
  "devdoc": {
    "methods": {}
  },
  "userdoc": {
    "methods": {}
  }
}