{
  "contractName": "Bet",
  "abi": [
    {
      "inputs": [],
      "payable": false,
      "stateMutability": "nonpayable",
      "type": "constructor"
    },
    {
      "anonymous": false,
      "inputs": [
        {
          "indexed": false,
          "internalType": "address",
          "name": "accountAddress",
          "type": "address"
        },
        {
          "indexed": false,
          "internalType": "uint256",
          "name": "amount",
          "type": "uint256"
        }
      ],
      "name": "LogQuestionMade",
      "type": "event"
    },
    {
      "constant": true,
      "inputs": [],
      "name": "owner",
      "outputs": [
        {
          "internalType": "address",
          "name": "",
          "type": "address"
        }
      ],
      "payable": false,
      "stateMutability": "view",
      "type": "function"
    },
    {
      "constant": true,
      "inputs": [
        {
          "internalType": "uint256",
          "name": "",
          "type": "uint256"
        }
      ],
      "name": "questions",
      "outputs": [
        {
          "internalType": "uint256",
          "name": "question_id",
          "type": "uint256"
        },
        {
          "internalType": "address payable",
          "name": "owner",
          "type": "address"
        },
        {
          "internalType": "string",
          "name": "description",
          "type": "string"
        },
        {
          "internalType": "uint256",
          "name": "expiryTime",
          "type": "uint256"
        },
        {
          "internalType": "bool",
          "name": "open",
          "type": "bool"
        },
        {
          "internalType": "address",
          "name": "arbitrator",
          "type": "address"
        },
        {
          "internalType": "uint256",
          "name": "question_balance",
          "type": "uint256"
        },
        {
          "internalType": "uint256",
          "name": "deposit",
          "type": "uint256"
        },
        {
          "components": [
            {
              "internalType": "uint256",
              "name": "option_id",
              "type": "uint256"
            },
            {
              "internalType": "string",
              "name": "description",
              "type": "string"
            },
            {
              "internalType": "uint256",
              "name": "option_balance",
              "type": "uint256"
            },
            {
              "internalType": "address payable[]",
              "name": "addresses",
              "type": "address[]"
            },
            {
              "internalType": "uint256[]",
              "name": "individual_bets",
              "type": "uint256[]"
            },
            {
              "internalType": "uint256",
              "name": "individualCount",
              "type": "uint256"
            }
          ],
          "internalType": "struct Bet.Option",
          "name": "option1",
          "type": "tuple"
        },
        {
          "components": [
            {
              "internalType": "uint256",
              "name": "option_id",
              "type": "uint256"
            },
            {
              "internalType": "string",
              "name": "description",
              "type": "string"
            },
            {
              "internalType": "uint256",
              "name": "option_balance",
              "type": "uint256"
            },
            {
              "internalType": "address payable[]",
              "name": "addresses",
              "type": "address[]"
            },
            {
              "internalType": "uint256[]",
              "name": "individual_bets",
              "type": "uint256[]"
            },
            {
              "internalType": "uint256",
              "name": "individualCount",
              "type": "uint256"
            }
          ],
          "internalType": "struct Bet.Option",
          "name": "option2",
          "type": "tuple"
        },
        {
          "components": [
            {
              "internalType": "uint256",
              "name": "option_id",
              "type": "uint256"
            },
            {
              "internalType": "string",
              "name": "description",
              "type": "string"
            },
            {
              "internalType": "uint256",
              "name": "option_balance",
              "type": "uint256"
            },
            {
              "internalType": "address payable[]",
              "name": "addresses",
              "type": "address[]"
            },
            {
              "internalType": "uint256[]",
              "name": "individual_bets",
              "type": "uint256[]"
            },
            {
              "internalType": "uint256",
              "name": "individualCount",
              "type": "uint256"
            }
          ],
          "internalType": "struct Bet.Option",
          "name": "option3",
          "type": "tuple"
        }
      ],
      "payable": false,
      "stateMutability": "view",
      "type": "function"
    },
    {
      "constant": true,
      "inputs": [],
      "name": "questionsCount",
      "outputs": [
        {
          "internalType": "uint256",
          "name": "",
          "type": "uint256"
        }
      ],
      "payable": false,
      "stateMutability": "view",
      "type": "function"
    },
    {
      "constant": true,
      "inputs": [
        {
          "internalType": "uint256",
          "name": "qid",
          "type": "uint256"
        }
      ],
      "name": "questionExpiry",
      "outputs": [
        {
          "internalType": "bool",
          "name": "",
          "type": "bool"
        }
      ],
      "payable": false,
      "stateMutability": "view",
      "type": "function"
    },
    {
      "constant": false,
      "inputs": [
        {
          "internalType": "string",
          "name": "_desc",
          "type": "string"
        },
        {
          "internalType": "uint256",
          "name": "_expiryTime",
          "type": "uint256"
        },
        {
          "internalType": "address",
          "name": "_arbitrator",
          "type": "address"
        },
        {
          "internalType": "string[]",
          "name": "_options",
          "type": "string[]"
        }
      ],
      "name": "addQuestion",
      "outputs": [
        {
          "internalType": "uint256",
          "name": "",
          "type": "uint256"
        }
      ],
      "payable": true,
      "stateMutability": "payable",
      "type": "function"
    },
    {
      "constant": false,
      "inputs": [],
      "name": "getAllQuestions",
      "outputs": [
        {
          "internalType": "uint256[]",
          "name": "",
          "type": "uint256[]"
        },
        {
          "internalType": "string[]",
          "name": "",
          "type": "string[]"
        },
        {
          "internalType": "uint256[]",
          "name": "",
          "type": "uint256[]"
        }
      ],
      "payable": false,
      "stateMutability": "nonpayable",
      "type": "function"
    },
    {
      "constant": false,
      "inputs": [
        {
          "internalType": "bool",
          "name": "isOpen",
          "type": "bool"
        }
      ],
      "name": "getFilteredQuestions",
      "outputs": [
        {
          "internalType": "uint256[]",
          "name": "",
          "type": "uint256[]"
        },
        {
          "internalType": "string[]",
          "name": "",
          "type": "string[]"
        },
        {
          "internalType": "uint256[]",
          "name": "",
          "type": "uint256[]"
        }
      ],
      "payable": false,
      "stateMutability": "nonpayable",
      "type": "function"
    },
    {
      "constant": false,
      "inputs": [
        {
          "internalType": "uint256",
          "name": "qid",
          "type": "uint256"
        }
      ],
      "name": "getQuestionById",
      "outputs": [
        {
          "internalType": "uint256",
          "name": "",
          "type": "uint256"
        },
        {
          "internalType": "string",
          "name": "",
          "type": "string"
        },
        {
          "internalType": "uint256",
          "name": "",
          "type": "uint256"
        },
        {
          "internalType": "string[]",
          "name": "",
          "type": "string[]"
        },
        {
          "internalType": "uint256[]",
          "name": "",
          "type": "uint256[]"
        }
      ],
      "payable": false,
      "stateMutability": "nonpayable",
      "type": "function"
    },
    {
      "constant": false,
      "inputs": [
        {
          "internalType": "uint256",
          "name": "question_id",
          "type": "uint256"
        }
      ],
      "name": "closeQuestion",
      "outputs": [
        {
          "internalType": "uint256",
          "name": "",
          "type": "uint256"
        }
      ],
      "payable": false,
      "stateMutability": "nonpayable",
      "type": "function"
    },
    {
      "constant": false,
      "inputs": [
        {
          "internalType": "uint256",
          "name": "question_id",
          "type": "uint256"
        },
        {
          "internalType": "uint256",
          "name": "option_id",
          "type": "uint256"
        }
      ],
      "name": "makeBet",
      "outputs": [
        {
          "internalType": "uint256",
          "name": "",
          "type": "uint256"
        }
      ],
      "payable": true,
      "stateMutability": "payable",
      "type": "function"
    }
  ],
  "bytecode": "0x6080604052600060015534801561001557600080fd5b5033600260006101000a81548173ffffffffffffffffffffffffffffffffffffffff021916908373ffffffffffffffffffffffffffffffffffffffff16021790555061386e806100666000396000f3fe6080604052600436106100915760003560e01c8063be57d0bc11610059578063be57d0bc1461019d578063c09f32e8146101cd578063df898e321461020a578063e25f3e021461023a578063f0534de91461027b57610091565b80632af9338e1461009657806331b1b978146100c35780637c1fb3c31461010a5780638da5cb5b146101355780639e3b2f5914610160575b600080fd5b3480156100a257600080fd5b506100ab6102ba565b6040516100ba93929190613389565b60405180910390f35b3480156100cf57600080fd5b506100ea60048036036100e59190810190612f62565b61041c565b6040516101019b9a9998979695949392919061340b565b60405180910390f35b34801561011657600080fd5b5061011f610a6b565b60405161012c91906133f0565b60405180910390f35b34801561014157600080fd5b5061014a610a71565b6040516101579190613345565b60405180910390f35b34801561016c57600080fd5b5061018760048036036101829190810190612f62565b610a97565b60405161019491906133d5565b60405180910390f35b6101b760048036036101b29190810190612ecf565b610ac8565b6040516101c491906133f0565b60405180910390f35b3480156101d957600080fd5b506101f460048036036101ef9190810190612f62565b610f2b565b60405161020191906133f0565b60405180910390f35b610224600480360361021f9190810190612f8b565b6117ab565b60405161023191906133f0565b60405180910390f35b34801561024657600080fd5b50610261600480360361025c9190810190612f62565b61203d565b6040516102729594939291906134d2565b60405180910390f35b34801561028757600080fd5b506102a2600480360361029d9190810190612ea6565b612878565b6040516102b193929190613389565b60405180910390f35b60608060606102c7612a0b565b60608060606000600190505b600154811161040a57600080828152602001908152602001600020600001548482815181106102fe57fe5b6020026020010181815250506000808281526020019081526020016000206002018054600181600116156101000203166002900480601f0160208091040260200160405190810160405280929190818152602001828054600181600116156101000203166002900480156103b35780601f10610388576101008083540402835291602001916103b3565b820191906000526020600020905b81548152906001019060200180831161039657829003601f168201915b50505050508382815181106103c457fe5b6020026020010181905250600080828152602001908152602001600020600301548282815181106103f157fe5b60200260200101818152505080806001019150506102d3565b50828282955095509550505050909192565b60006020528060005260406000206000915090508060000154908060010160009054906101000a900473ffffffffffffffffffffffffffffffffffffffff1690806002018054600181600116156101000203166002900480601f0160208091040260200160405190810160405280929190818152602001828054600181600116156101000203166002900480156104f45780601f106104c9576101008083540402835291602001916104f4565b820191906000526020600020905b8154815290600101906020018083116104d757829003601f168201915b5050505050908060030154908060040160009054906101000a900460ff16908060040160019054906101000a900473ffffffffffffffffffffffffffffffffffffffff1690806005015490806006015490806007016040518060c001604052908160008201548152602001600182018054600181600116156101000203166002900480601f0160208091040260200160405190810160405280929190818152602001828054600181600116156101000203166002900480156105f75780601f106105cc576101008083540402835291602001916105f7565b820191906000526020600020905b8154815290600101906020018083116105da57829003601f168201915b50505050508152602001600282015481526020016003820180548060200260200160405190810160405280929190818152602001828054801561068f57602002820191906000526020600020905b8160009054906101000a900473ffffffffffffffffffffffffffffffffffffffff1673ffffffffffffffffffffffffffffffffffffffff1681526020019060010190808311610645575b50505050508152602001600482018054806020026020016040519081016040528092919081815260200182805480156106e757602002820191906000526020600020905b8154815260200190600101908083116106d3575b505050505081526020016005820154815250509080600d016040518060c001604052908160008201548152602001600182018054600181600116156101000203166002900480601f0160208091040260200160405190810160405280929190818152602001828054600181600116156101000203166002900480156107ad5780601f10610782576101008083540402835291602001916107ad565b820191906000526020600020905b81548152906001019060200180831161079057829003601f168201915b50505050508152602001600282015481526020016003820180548060200260200160405190810160405280929190818152602001828054801561084557602002820191906000526020600020905b8160009054906101000a900473ffffffffffffffffffffffffffffffffffffffff1673ffffffffffffffffffffffffffffffffffffffff16815260200190600101908083116107fb575b505050505081526020016004820180548060200260200160405190810160405280929190818152602001828054801561089d57602002820191906000526020600020905b815481526020019060010190808311610889575b5050505050815260200160058201548152505090806013016040518060c001604052908160008201548152602001600182018054600181600116156101000203166002900480601f0160208091040260200160405190810160405280929190818152602001828054600181600116156101000203166002900480156109635780601f1061093857610100808354040283529160200191610963565b820191906000526020600020905b81548152906001019060200180831161094657829003601f168201915b5050505050815260200160028201548152602001600382018054806020026020016040519081016040528092919081815260200182805480156109fb57602002820191906000526020600020905b8160009054906101000a900473ffffffffffffffffffffffffffffffffffffffff1673ffffffffffffffffffffffffffffffffffffffff16815260200190600101908083116109b1575b5050505050815260200160048201805480602002602001604051908101604052809291908181526020018280548015610a5357602002820191906000526020600020905b815481526020019060010190808311610a3f575b5050505050815260200160058201548152505090508b565b60015481565b600260009054906101000a900473ffffffffffffffffffffffffffffffffffffffff1681565b60008060008084815260200190815260200160002060040160009054906101000a900460ff16905080915050919050565b60006001341015610ad857600080fd5b60018060008282540192505081905550606080610af3612a86565b6040518060c001604052806000815260200186600081518110610b1257fe5b602002602001015181526020016000815260200184815260200183815260200160008152509050610b41612a86565b6040518060c001604052806001815260200187600181518110610b6057fe5b602002602001015181526020016000815260200185815260200184815260200160008152509050610b8f612a86565b6040518060c001604052806002815260200188600281518110610bae57fe5b60200260200101518152602001600081526020018681526020018581526020016000815250905060405180610160016040528060015481526020013373ffffffffffffffffffffffffffffffffffffffff1681526020018b81526020018a81526020016001151581526020018973ffffffffffffffffffffffffffffffffffffffff168152602001600081526020013481526020018481526020018381526020018281525060008060015481526020019081526020016000206000820151816000015560208201518160010160006101000a81548173ffffffffffffffffffffffffffffffffffffffff021916908373ffffffffffffffffffffffffffffffffffffffff1602179055506040820151816002019080519060200190610cd4929190612abc565b506060820151816003015560808201518160040160006101000a81548160ff02191690831515021790555060a08201518160040160016101000a81548173ffffffffffffffffffffffffffffffffffffffff021916908373ffffffffffffffffffffffffffffffffffffffff16021790555060c0820151816005015560e0820151816006015561010082015181600701600082015181600001556020820151816001019080519060200190610d8a929190612abc565b50604082015181600201556060820151816003019080519060200190610db1929190612b3c565b506080820151816004019080519060200190610dce929190612bc6565b5060a08201518160050155505061012082015181600d01600082015181600001556020820151816001019080519060200190610e0b929190612abc565b50604082015181600201556060820151816003019080519060200190610e32929190612b3c565b506080820151816004019080519060200190610e4f929190612bc6565b5060a08201518160050155505061014082015181601301600082015181600001556020820151816001019080519060200190610e8c929190612abc565b50604082015181600201556060820151816003019080519060200190610eb3929190612b3c565b506080820151816004019080519060200190610ed0929190612bc6565b5060a0820151816005015550509050507f61027becd95819dfaea4b3c7c774b9c0ae2cb9cf291ebbd5b51ea07edfd869ed3334604051610f11929190613360565b60405180910390a160015495505050505050949350505050565b6000600154821115610f3c57600080fd5b6001151560008084815260200190815260200160002060040160009054906101000a900460ff16151514610f6f57600080fd5b610f77612c13565b60008084815260200190815260200160002060405180610160016040529081600082015481526020016001820160009054906101000a900473ffffffffffffffffffffffffffffffffffffffff1673ffffffffffffffffffffffffffffffffffffffff1673ffffffffffffffffffffffffffffffffffffffff168152602001600282018054600181600116156101000203166002900480601f01602080910402602001604051908101604052809291908181526020018280546001816001161561010002031660029004801561108e5780601f106110635761010080835404028352916020019161108e565b820191906000526020600020905b81548152906001019060200180831161107157829003601f168201915b50505050508152602001600382015481526020016004820160009054906101000a900460ff161515151581526020016004820160019054906101000a900473ffffffffffffffffffffffffffffffffffffffff1673ffffffffffffffffffffffffffffffffffffffff1673ffffffffffffffffffffffffffffffffffffffff1681526020016005820154815260200160068201548152602001600782016040518060c001604052908160008201548152602001600182018054600181600116156101000203166002900480601f0160208091040260200160405190810160405280929190818152602001828054600181600116156101000203166002900480156111d95780601f106111ae576101008083540402835291602001916111d9565b820191906000526020600020905b8154815290600101906020018083116111bc57829003601f168201915b50505050508152602001600282015481526020016003820180548060200260200160405190810160405280929190818152602001828054801561127157602002820191906000526020600020905b8160009054906101000a900473ffffffffffffffffffffffffffffffffffffffff1673ffffffffffffffffffffffffffffffffffffffff1681526020019060010190808311611227575b50505050508152602001600482018054806020026020016040519081016040528092919081815260200182805480156112c957602002820191906000526020600020905b8154815260200190600101908083116112b5575b505050505081526020016005820154815250508152602001600d82016040518060c001604052908160008201548152602001600182018054600181600116156101000203166002900480601f0160208091040260200160405190810160405280929190818152602001828054600181600116156101000203166002900480156113935780601f1061136857610100808354040283529160200191611393565b820191906000526020600020905b81548152906001019060200180831161137657829003601f168201915b50505050508152602001600282015481526020016003820180548060200260200160405190810160405280929190818152602001828054801561142b57602002820191906000526020600020905b8160009054906101000a900473ffffffffffffffffffffffffffffffffffffffff1673ffffffffffffffffffffffffffffffffffffffff16815260200190600101908083116113e1575b505050505081526020016004820180548060200260200160405190810160405280929190818152602001828054801561148357602002820191906000526020600020905b81548152602001906001019080831161146f575b505050505081526020016005820154815250508152602001601382016040518060c001604052908160008201548152602001600182018054600181600116156101000203166002900480601f01602080910402602001604051908101604052809291908181526020018280546001816001161561010002031660029004801561154d5780601f106115225761010080835404028352916020019161154d565b820191906000526020600020905b81548152906001019060200180831161153057829003601f168201915b5050505050815260200160028201548152602001600382018054806020026020016040519081016040528092919081815260200182805480156115e557602002820191906000526020600020905b8160009054906101000a900473ffffffffffffffffffffffffffffffffffffffff1673ffffffffffffffffffffffffffffffffffffffff168152602001906001019080831161159b575b505050505081526020016004820180548060200260200160405190810160405280929190818152602001828054801561163d57602002820191906000526020600020905b815481526020019060010190808311611629575b5050505050815260200160058201548152505081525050905061165e612a86565b8161010001519050816020015173ffffffffffffffffffffffffffffffffffffffff166108fc8360e001519081150290604051600060405180830381858888f193505050501580156116b4573d6000803e3d6000fd5b5060008260c0015190506000600190505b8260a00151811161178e576000836060015182815181106116e257fe5b6020026020010151905060008385604001518660800151858151811061170457fe5b60200260200101518161171357fe5b040290508560c0015181111561172857600080fd5b808660c00181815103915081815250508173ffffffffffffffffffffffffffffffffffffffff166108fc829081150290604051600060405180830381858888f1935050505015801561177e573d6000803e3d6000fd5b50505080806001019150506116c5565b506000836080019015159081151581525050849350505050919050565b60006001151560008085815260200190815260200160002060040160009054906101000a900460ff161515146117e057600080fd5b6117e8612c13565b60008085815260200190815260200160002060405180610160016040529081600082015481526020016001820160009054906101000a900473ffffffffffffffffffffffffffffffffffffffff1673ffffffffffffffffffffffffffffffffffffffff1673ffffffffffffffffffffffffffffffffffffffff168152602001600282018054600181600116156101000203166002900480601f0160208091040260200160405190810160405280929190818152602001828054600181600116156101000203166002900480156118ff5780601f106118d4576101008083540402835291602001916118ff565b820191906000526020600020905b8154815290600101906020018083116118e257829003601f168201915b50505050508152602001600382015481526020016004820160009054906101000a900460ff161515151581526020016004820160019054906101000a900473ffffffffffffffffffffffffffffffffffffffff1673ffffffffffffffffffffffffffffffffffffffff1673ffffffffffffffffffffffffffffffffffffffff1681526020016005820154815260200160068201548152602001600782016040518060c001604052908160008201548152602001600182018054600181600116156101000203166002900480601f016020809104026020016040519081016040528092919081815260200182805460018160011615610100020316600290048015611a4a5780601f10611a1f57610100808354040283529160200191611a4a565b820191906000526020600020905b815481529060010190602001808311611a2d57829003601f168201915b505050505081526020016002820154815260200160038201805480602002602001604051908101604052809291908181526020018280548015611ae257602002820191906000526020600020905b8160009054906101000a900473ffffffffffffffffffffffffffffffffffffffff1673ffffffffffffffffffffffffffffffffffffffff1681526020019060010190808311611a98575b5050505050815260200160048201805480602002602001604051908101604052809291908181526020018280548015611b3a57602002820191906000526020600020905b815481526020019060010190808311611b26575b505050505081526020016005820154815250508152602001600d82016040518060c001604052908160008201548152602001600182018054600181600116156101000203166002900480601f016020809104026020016040519081016040528092919081815260200182805460018160011615610100020316600290048015611c045780601f10611bd957610100808354040283529160200191611c04565b820191906000526020600020905b815481529060010190602001808311611be757829003601f168201915b505050505081526020016002820154815260200160038201805480602002602001604051908101604052809291908181526020018280548015611c9c57602002820191906000526020600020905b8160009054906101000a900473ffffffffffffffffffffffffffffffffffffffff1673ffffffffffffffffffffffffffffffffffffffff1681526020019060010190808311611c52575b5050505050815260200160048201805480602002602001604051908101604052809291908181526020018280548015611cf457602002820191906000526020600020905b815481526020019060010190808311611ce0575b505050505081526020016005820154815250508152602001601382016040518060c001604052908160008201548152602001600182018054600181600116156101000203166002900480601f016020809104026020016040519081016040528092919081815260200182805460018160011615610100020316600290048015611dbe5780601f10611d9357610100808354040283529160200191611dbe565b820191906000526020600020905b815481529060010190602001808311611da157829003601f168201915b505050505081526020016002820154815260200160038201805480602002602001604051908101604052809291908181526020018280548015611e5657602002820191906000526020600020905b8160009054906101000a900473ffffffffffffffffffffffffffffffffffffffff1673ffffffffffffffffffffffffffffffffffffffff1681526020019060010190808311611e0c575b5050505050815260200160048201805480602002602001604051908101604052809291908181526020018280548015611eae57602002820191906000526020600020905b815481526020019060010190808311611e9a575b50505050508152602001600582015481525050815250509050611ecf612a86565b6000841415611ee5578161010001519050611f05565b6001841415611efb578161012001519050611f04565b81610140015190505b5b600080600090505b826060015151811015611fed573373ffffffffffffffffffffffffffffffffffffffff1683606001518281518110611f4157fe5b602002602001015173ffffffffffffffffffffffffffffffffffffffff161415611f6d57809150611fed565b600183606001515103811415611fe0576001810191503383606001518381518110611f9457fe5b602002602001019073ffffffffffffffffffffffffffffffffffffffff16908173ffffffffffffffffffffffffffffffffffffffff168152505060018360a00181815101915081815250505b8080600101915050611f0d565b503482608001518281518110611fff57fe5b60200260200101818151019150818152505034826040018181510191508181525050348360c001818151019150818152505085935050505092915050565b60006060600060608060015486111561205557600080fd5b61205d612c13565b6000600190505b600154811161277b578760008083815260200190815260200160002060000154141561276e5760008082815260200190815260200160002060405180610160016040529081600082015481526020016001820160009054906101000a900473ffffffffffffffffffffffffffffffffffffffff1673ffffffffffffffffffffffffffffffffffffffff1673ffffffffffffffffffffffffffffffffffffffff168152602001600282018054600181600116156101000203166002900480601f0160208091040260200160405190810160405280929190818152602001828054600181600116156101000203166002900480156121a15780601f10612176576101008083540402835291602001916121a1565b820191906000526020600020905b81548152906001019060200180831161218457829003601f168201915b50505050508152602001600382015481526020016004820160009054906101000a900460ff161515151581526020016004820160019054906101000a900473ffffffffffffffffffffffffffffffffffffffff1673ffffffffffffffffffffffffffffffffffffffff1673ffffffffffffffffffffffffffffffffffffffff1681526020016005820154815260200160068201548152602001600782016040518060c001604052908160008201548152602001600182018054600181600116156101000203166002900480601f0160208091040260200160405190810160405280929190818152602001828054600181600116156101000203166002900480156122ec5780601f106122c1576101008083540402835291602001916122ec565b820191906000526020600020905b8154815290600101906020018083116122cf57829003601f168201915b50505050508152602001600282015481526020016003820180548060200260200160405190810160405280929190818152602001828054801561238457602002820191906000526020600020905b8160009054906101000a900473ffffffffffffffffffffffffffffffffffffffff1673ffffffffffffffffffffffffffffffffffffffff168152602001906001019080831161233a575b50505050508152602001600482018054806020026020016040519081016040528092919081815260200182805480156123dc57602002820191906000526020600020905b8154815260200190600101908083116123c8575b505050505081526020016005820154815250508152602001600d82016040518060c001604052908160008201548152602001600182018054600181600116156101000203166002900480601f0160208091040260200160405190810160405280929190818152602001828054600181600116156101000203166002900480156124a65780601f1061247b576101008083540402835291602001916124a6565b820191906000526020600020905b81548152906001019060200180831161248957829003601f168201915b50505050508152602001600282015481526020016003820180548060200260200160405190810160405280929190818152602001828054801561253e57602002820191906000526020600020905b8160009054906101000a900473ffffffffffffffffffffffffffffffffffffffff1673ffffffffffffffffffffffffffffffffffffffff16815260200190600101908083116124f4575b505050505081526020016004820180548060200260200160405190810160405280929190818152602001828054801561259657602002820191906000526020600020905b815481526020019060010190808311612582575b505050505081526020016005820154815250508152602001601382016040518060c001604052908160008201548152602001600182018054600181600116156101000203166002900480601f0160208091040260200160405190810160405280929190818152602001828054600181600116156101000203166002900480156126605780601f1061263557610100808354040283529160200191612660565b820191906000526020600020905b81548152906001019060200180831161264357829003601f168201915b5050505050815260200160028201548152602001600382018054806020026020016040519081016040528092919081815260200182805480156126f857602002820191906000526020600020905b8160009054906101000a900473ffffffffffffffffffffffffffffffffffffffff1673ffffffffffffffffffffffffffffffffffffffff16815260200190600101908083116126ae575b505050505081526020016004820180548060200260200160405190810160405280929190818152602001828054801561275057602002820191906000526020600020905b81548152602001906001019080831161273c575b5050505050815260200160058201548152505081525050915061277b565b8080600101915050612064565b50606080826101000151602001518260008151811061279657fe5b602002602001018190525082610120015160200151826001815181106127b857fe5b602002602001018190525082610140015160200151826002815181106127da57fe5b602002602001018190525082610100015160a00151816000815181106127fc57fe5b60200260200101818152505082610120015160a001518160018151811061281f57fe5b60200260200101818152505082610140015160a001518160028151811061284257fe5b60200260200101818152505082600001518360400151846060015184848393509750975097509750975050505091939590929450565b6060806060612885612a0b565b60608060606000600190505b60015481116129f75787151560008083815260200190815260200160002060040160009054906101000a900460ff16151514156129ea57600080828152602001908152602001600020600001548482815181106128ea57fe5b6020026020010181815250506000808281526020019081526020016000206002018054600181600116156101000203166002900480601f01602080910402602001604051908101604052809291908181526020018280546001816001161561010002031660029004801561299f5780601f106129745761010080835404028352916020019161299f565b820191906000526020600020905b81548152906001019060200180831161298257829003601f168201915b50505050508382815181106129b057fe5b6020026020010181905250600080828152602001908152602001600020600301548282815181106129dd57fe5b6020026020010181815250505b8080600101915050612891565b508282829550955095505050509193909250565b6000600190505b6001548111612a83576001151560008083815260200190815260200160002060040160009054906101000a900460ff161515148015612a665750426000808381526020019081526020016000206003015411155b15612a7657612a7481610f2b565b505b8080600101915050612a12565b50565b6040518060c001604052806000815260200160608152602001600081526020016060815260200160608152602001600081525090565b828054600181600116156101000203166002900490600052602060002090601f016020900481019282601f10612afd57805160ff1916838001178555612b2b565b82800160010185558215612b2b579182015b82811115612b2a578251825591602001919060010190612b0f565b5b509050612b389190612cad565b5090565b828054828255906000526020600020908101928215612bb5579160200282015b82811115612bb45782518260006101000a81548173ffffffffffffffffffffffffffffffffffffffff021916908373ffffffffffffffffffffffffffffffffffffffff16021790555091602001919060010190612b5c565b5b509050612bc29190612cd2565b5090565b828054828255906000526020600020908101928215612c02579160200282015b82811115612c01578251825591602001919060010190612be6565b5b509050612c0f9190612cad565b5090565b60405180610160016040528060008152602001600073ffffffffffffffffffffffffffffffffffffffff1681526020016060815260200160008152602001600015158152602001600073ffffffffffffffffffffffffffffffffffffffff1681526020016000815260200160008152602001612c8d612d15565b8152602001612c9a612d15565b8152602001612ca7612d15565b81525090565b612ccf91905b80821115612ccb576000816000905550600101612cb3565b5090565b90565b612d1291905b80821115612d0e57600081816101000a81549073ffffffffffffffffffffffffffffffffffffffff021916905550600101612cd8565b5090565b90565b6040518060c001604052806000815260200160608152602001600081526020016060815260200160608152602001600081525090565b600081359050612d5a816137e6565b92915050565b600082601f830112612d7157600080fd5b8135612d84612d7f82613567565b61353a565b9150818183526020840193506020810190508360005b83811015612dca5781358601612db08882612de9565b845260208401935060208301925050600181019050612d9a565b5050505092915050565b600081359050612de3816137fd565b92915050565b600082601f830112612dfa57600080fd5b8135612e0d612e088261358f565b61353a565b91508082526020830160208301858383011115612e2957600080fd5b612e34838284613793565b50505092915050565b600082601f830112612e4e57600080fd5b8135612e61612e5c826135bb565b61353a565b91508082526020830160208301858383011115612e7d57600080fd5b612e88838284613793565b50505092915050565b600081359050612ea081613814565b92915050565b600060208284031215612eb857600080fd5b6000612ec684828501612dd4565b91505092915050565b60008060008060808587031215612ee557600080fd5b600085013567ffffffffffffffff811115612eff57600080fd5b612f0b87828801612e3d565b9450506020612f1c87828801612e91565b9350506040612f2d87828801612d4b565b925050606085013567ffffffffffffffff811115612f4a57600080fd5b612f5687828801612d60565b91505092959194509250565b600060208284031215612f7457600080fd5b6000612f8284828501612e91565b91505092915050565b60008060408385031215612f9e57600080fd5b6000612fac85828601612e91565b9250506020612fbd85828601612e91565b9150509250929050565b6000612fd3838361301a565b60208301905092915050565b6000612feb838361321e565b905092915050565b6000612fff8383613327565b60208301905092915050565b6130148161375d565b82525050565b61302381613715565b82525050565b61303281613715565b82525050565b61304181613703565b82525050565b600061305282613627565b61305c818561369d565b9350613067836135e7565b8060005b8381101561309857815161307f8882612fc7565b975061308a83613669565b92505060018101905061306b565b5085935050505092915050565b60006130b082613632565b6130ba81856136ae565b9350836020820285016130cc856135f7565b8060005b8581101561310857848403895281516130e98582612fdf565b94506130f483613676565b925060208a019950506001810190506130d0565b50829750879550505050505092915050565b600061312582613648565b61312f81856136d0565b935061313a83613617565b8060005b8381101561316b5781516131528882612ff3565b975061315d83613690565b92505060018101905061313e565b5085935050505092915050565b60006131838261363d565b61318d81856136bf565b935061319883613607565b8060005b838110156131c95781516131b08882612ff3565b97506131bb83613683565b92505060018101905061319c565b5085935050505092915050565b6131df81613727565b82525050565b60006131f08261365e565b6131fa81856136f2565b935061320a8185602086016137a2565b613213816137d5565b840191505092915050565b600061322982613653565b61323381856136e1565b93506132438185602086016137a2565b61324c816137d5565b840191505092915050565b600061326282613653565b61326c81856136f2565b935061327c8185602086016137a2565b613285816137d5565b840191505092915050565b600060c0830160008301516132a86000860182613327565b50602083015184820360208601526132c0828261321e565b91505060408301516132d56040860182613327565b50606083015184820360608601526132ed8282613047565b915050608083015184820360808601526133078282613178565b91505060a083015161331c60a0860182613327565b508091505092915050565b61333081613753565b82525050565b61333f81613753565b82525050565b600060208201905061335a6000830184613038565b92915050565b6000604082019050613375600083018561300b565b6133826020830184613336565b9392505050565b600060608201905081810360008301526133a3818661311a565b905081810360208301526133b781856130a5565b905081810360408301526133cb818461311a565b9050949350505050565b60006020820190506133ea60008301846131d6565b92915050565b60006020820190506134056000830184613336565b92915050565b600061016082019050613421600083018e613336565b61342e602083018d613029565b8181036040830152613440818c613257565b905061344f606083018b613336565b61345c608083018a6131d6565b61346960a0830189613038565b61347660c0830188613336565b61348360e0830187613336565b8181036101008301526134968186613290565b90508181036101208301526134ab8185613290565b90508181036101408301526134c08184613290565b90509c9b505050505050505050505050565b600060a0820190506134e76000830188613336565b81810360208301526134f981876131e5565b90506135086040830186613336565b818103606083015261351a81856130a5565b9050818103608083015261352e818461311a565b90509695505050505050565b6000604051905081810181811067ffffffffffffffff8211171561355d57600080fd5b8060405250919050565b600067ffffffffffffffff82111561357e57600080fd5b602082029050602081019050919050565b600067ffffffffffffffff8211156135a657600080fd5b601f19601f8301169050602081019050919050565b600067ffffffffffffffff8211156135d257600080fd5b601f19601f8301169050602081019050919050565b6000819050602082019050919050565b6000819050602082019050919050565b6000819050602082019050919050565b6000819050602082019050919050565b600081519050919050565b600081519050919050565b600081519050919050565b600081519050919050565b600081519050919050565b600081519050919050565b6000602082019050919050565b6000602082019050919050565b6000602082019050919050565b6000602082019050919050565b600082825260208201905092915050565b600082825260208201905092915050565b600082825260208201905092915050565b600082825260208201905092915050565b600082825260208201905092915050565b600082825260208201905092915050565b600061370e82613733565b9050919050565b600061372082613733565b9050919050565b60008115159050919050565b600073ffffffffffffffffffffffffffffffffffffffff82169050919050565b6000819050919050565b60006137688261376f565b9050919050565b600061377a82613781565b9050919050565b600061378c82613733565b9050919050565b82818337600083830152505050565b60005b838110156137c05780820151818401526020810190506137a5565b838111156137cf576000848401525b50505050565b6000601f19601f8301169050919050565b6137ef81613703565b81146137fa57600080fd5b50565b61380681613727565b811461381157600080fd5b50565b61381d81613753565b811461382857600080fd5b5056fea365627a7a72315820cccb2d59592d3628697ff8d851a9510bb6da1d6b52103462f0263954079f12496c6578706572696d656e74616cf564736f6c63430005100040",
  "source": "// SPDX-License-Identifier: MIT\r\npragma solidity >=0.5.16;\r\npragma experimental ABIEncoderV2;\r\n\r\nimport \"./Arbitration.sol\";\r\n\r\ncontract Bet {\r\n\r\n    struct Option {\r\n        uint option_id;\r\n        string description;\r\n        uint option_balance;\r\n        address payable[] addresses;\r\n        uint[] individual_bets;\r\n        uint individualCount;\r\n\r\n    }\r\n\r\n    struct Question{\r\n        uint question_id;\r\n        address payable owner;\r\n        string description;\r\n        uint expiryTime;\r\n        bool open;\r\n        address arbitrator;\r\n        uint question_balance;\r\n        uint deposit;\r\n\r\n        Option option1;\r\n        Option option2;\r\n        Option option3;\r\n        \r\n    }\r\n\r\n    mapping(uint => Question) public questions;\r\n    uint public questionsCount = 0;\r\n    address public owner;\r\n    event LogQuestionMade(address accountAddress, uint amount);\r\n\r\n    constructor () public {\r\n        owner = msg.sender;\r\n    }\r\n\r\n    function questionExpiry(uint qid) view public returns (bool){\r\n        bool exp = questions[qid].open;\r\n        return exp;\r\n    }\r\n\r\n    function addQuestion(string memory _desc, uint _expiryTime, address _arbitrator, string[] memory _options) public payable returns (uint) {\r\n        require(msg.value >= 1);\r\n\r\n        questionsCount += 1;\r\n\r\n        address payable[] memory empty_address;\r\n        uint[] memory empty_bets;\r\n\r\n        Option memory dummyOption1 = Option({\r\n            option_id: 0,\r\n            description: _options[0],\r\n            option_balance: 0,\r\n            addresses: empty_address,\r\n            individual_bets: empty_bets,\r\n            individualCount: 0\r\n        });\r\n\r\n        Option memory dummyOption2 = Option({\r\n            option_id: 1,\r\n            description: _options[1],\r\n            option_balance: 0,\r\n            addresses: empty_address,\r\n            individual_bets: empty_bets,\r\n            individualCount: 0\r\n        });\r\n\r\n        Option memory dummyOption3 = Option({\r\n            option_id: 2,\r\n            description: _options[2],\r\n            option_balance: 0,\r\n            addresses: empty_address,\r\n            individual_bets: empty_bets,\r\n            individualCount: 0\r\n        });\r\n\r\n        questions[questionsCount] = Question({\r\n            question_id: questionsCount, \r\n            owner: msg.sender, \r\n            description: _desc, \r\n            expiryTime: _expiryTime,\r\n            open: true,\r\n            arbitrator: _arbitrator,\r\n            option1: dummyOption1,\r\n            option2: dummyOption2,\r\n            option3: dummyOption3,\r\n            question_balance: 0,\r\n            deposit: msg.value}\r\n        );\r\n\r\n        emit LogQuestionMade(msg.sender, msg.value); // emit an event\r\n\r\n        return questionsCount;\r\n    }\r\n\r\n    function updateQuestionStatus() private {\r\n        for(uint i=1; i<=questionsCount; i++){\r\n            if((questions[i].open == true) && (questions[i].expiryTime <= block.timestamp)){\r\n                closeQuestion(i);\r\n            }\r\n        }\r\n    }\r\n\r\n    function getAllQuestions() public returns (uint[] memory , string[] memory , uint[] memory){\r\n        updateQuestionStatus();\r\n\r\n        uint[] memory question_ids;\r\n        string[] memory question_desc;\r\n        uint[] memory question_exp;\r\n\r\n        for (uint i=1; i<=questionsCount; i++){\r\n            question_ids[i] = questions[i].question_id;\r\n            question_desc[i] = questions[i].description;\r\n            question_exp[i] = questions[i].expiryTime;\r\n        }\r\n        return (question_ids, question_desc, question_exp);\r\n    }\r\n\r\n    function getFilteredQuestions(bool isOpen) public returns (uint[] memory , string[] memory , uint[] memory){\r\n        updateQuestionStatus();\r\n\r\n        uint[] memory question_ids;\r\n        string[] memory question_desc;\r\n        uint[] memory question_exp;\r\n\r\n        for(uint i=1; i<=questionsCount; i++){\r\n            if(questions[i].open == isOpen){\r\n                question_ids[i] = questions[i].question_id;\r\n                question_desc[i] = questions[i].description;\r\n                question_exp[i] = questions[i].expiryTime;\r\n            }\r\n        }\r\n\r\n        return (question_ids, question_desc, question_exp);\r\n    }\r\n\r\n    function getQuestionById(uint qid) public returns (uint, string memory, uint, string[] memory, uint[] memory) {\r\n        //updateQuestionStatus();\r\n        require(qid <= questionsCount);\r\n\r\n        Question memory qtn;\r\n\r\n        for(uint i=1; i<=questionsCount; i++){\r\n            if(questions[i].question_id == qid){\r\n                qtn = questions[i];\r\n                break;\r\n            }\r\n        }\r\n\r\n        string[] memory opt_desc;\r\n        uint[] memory opt_count;\r\n\r\n        opt_desc[0] = qtn.option1.description;\r\n        opt_desc[1] = qtn.option2.description;\r\n        opt_desc[2] = qtn.option3.description;\r\n        opt_count[0] = qtn.option1.individualCount;\r\n        opt_count[1] = qtn.option2.individualCount;\r\n        opt_count[2] = qtn.option3.individualCount;\r\n\r\n        // for(uint j=0; j<=3; j++){\r\n        //     opt_desc[j] = qtn.options[j].description;\r\n        //     opt_count[j] = qtn.options[j].individualCount;\r\n        // }\r\n\r\n        return (qtn.question_id, qtn.description, qtn.expiryTime, opt_desc, opt_count);\r\n        \r\n    }\r\n\r\n    function closeQuestion(uint question_id) public returns (uint){\r\n        require(question_id <= questionsCount);\r\n        require(questions[question_id].open == true);\r\n\r\n        Question memory qtn = questions[question_id];\r\n\r\n        //Arbitration arb = Arbitration(qtn.arbitrator);\r\n        // arb.addDetails(qtn.description, qtn.options);\r\n\r\n        //uint correct_prediction = arb.selectWinner();\r\n\r\n        Option memory correct_option = qtn.option1;\r\n\r\n        //Option memory correct_option = qtn.options[correct_prediction];\r\n\r\n        qtn.owner.transfer(qtn.deposit);\r\n\r\n        uint total_reward = qtn.question_balance;\r\n\r\n        for(uint i=1; i<=correct_option.individualCount; i++){\r\n            address payable reward_address = correct_option.addresses[i];\r\n            uint reward_amount = correct_option.individual_bets[i] / correct_option.option_balance * total_reward;\r\n\r\n            require(reward_amount <= qtn.question_balance);\r\n            qtn.question_balance -= reward_amount;\r\n            reward_address.transfer(reward_amount);\r\n        }\r\n\r\n        qtn.open = false;\r\n\r\n        return question_id;\r\n    }\r\n\r\n    function makeBet(uint question_id, uint option_id) public payable returns (uint){\r\n        require(questions[question_id].open == true);\r\n\r\n        Question memory qtn = questions[question_id];\r\n        //Option memory opt = qtn.options[option_id];\r\n\r\n        Option memory opt;\r\n\r\n        if (option_id == 0){\r\n            opt = qtn.option1;\r\n        }\r\n        else if (option_id == 1){\r\n            opt = qtn.option2;\r\n        }\r\n        else {\r\n            opt = qtn.option3;\r\n        }\r\n\r\n        uint index;\r\n        for (uint i=0; i<opt.addresses.length; i++){\r\n            if(opt.addresses[i] == msg.sender){\r\n                index = i;\r\n                break;\r\n            }\r\n\r\n            if(i == opt.addresses.length-1){\r\n                index = i+1;\r\n                opt.addresses[index] = msg.sender;\r\n                opt.individualCount += 1;\r\n\r\n            }\r\n        }\r\n\r\n        opt.individual_bets[index] += msg.value;\r\n        opt.option_balance += msg.value;\r\n\r\n        qtn.question_balance += msg.value;\r\n\r\n        return question_id;\r\n    }\r\n    \r\n}",
  "sourcePath": "C:/Users/Stella Marcella Lie/Desktop/CE4153/contracts/Bet.sol",
  "compiler": {
    "name": "solc",
    "version": "0.5.16+commit.9c3226ce.Emscripten.clang"
  },
  "schemaVersion": "3.3.1",
  "updatedAt": "2020-11-03T08:57:47.789Z",
  "devdoc": {
    "methods": {}
  },
  "userdoc": {
    "methods": {}
  }
}